{
  "contractName": "CozyHome",
  "abi": [
    {
      "inputs": [
        {
          "internalType": "uint256",
          "name": "_percent",
          "type": "uint256"
        }
      ],
      "stateMutability": "payable",
      "type": "constructor",
      "payable": true
    },
    {
      "anonymous": false,
      "inputs": [
        {
          "indexed": true,
          "internalType": "address",
          "name": "owner",
          "type": "address"
        },
        {
          "indexed": true,
          "internalType": "address",
          "name": "approved",
          "type": "address"
        },
        {
          "indexed": true,
          "internalType": "uint256",
          "name": "tokenId",
          "type": "uint256"
        }
      ],
      "name": "Approval",
      "type": "event"
    },
    {
      "anonymous": false,
      "inputs": [
        {
          "indexed": true,
          "internalType": "address",
          "name": "owner",
          "type": "address"
        },
        {
          "indexed": true,
          "internalType": "address",
          "name": "operator",
          "type": "address"
        },
        {
          "indexed": false,
          "internalType": "bool",
          "name": "approved",
          "type": "bool"
        }
      ],
      "name": "ApprovalForAll",
      "type": "event"
    },
    {
      "anonymous": false,
      "inputs": [
        {
          "indexed": true,
          "internalType": "address",
          "name": "previousOwner",
          "type": "address"
        },
        {
          "indexed": true,
          "internalType": "address",
          "name": "newOwner",
          "type": "address"
        }
      ],
      "name": "OwnershipTransferred",
      "type": "event"
    },
    {
      "anonymous": false,
      "inputs": [
        {
          "indexed": false,
          "internalType": "address",
          "name": "",
          "type": "address"
        },
        {
          "indexed": false,
          "internalType": "uint256",
          "name": "",
          "type": "uint256"
        }
      ],
      "name": "Received",
      "type": "event"
    },
    {
      "anonymous": false,
      "inputs": [
        {
          "indexed": true,
          "internalType": "address",
          "name": "from",
          "type": "address"
        },
        {
          "indexed": true,
          "internalType": "address",
          "name": "to",
          "type": "address"
        },
        {
          "indexed": true,
          "internalType": "uint256",
          "name": "tokenId",
          "type": "uint256"
        }
      ],
      "name": "Transfer",
      "type": "event"
    },
    {
      "stateMutability": "payable",
      "type": "fallback",
      "payable": true
    },
    {
      "inputs": [
        {
          "internalType": "address",
          "name": "to",
          "type": "address"
        },
        {
          "internalType": "uint256",
          "name": "tokenId",
          "type": "uint256"
        }
      ],
      "name": "approve",
      "outputs": [],
      "stateMutability": "nonpayable",
      "type": "function"
    },
    {
      "inputs": [
        {
          "internalType": "address",
          "name": "owner",
          "type": "address"
        }
      ],
      "name": "balanceOf",
      "outputs": [
        {
          "internalType": "uint256",
          "name": "",
          "type": "uint256"
        }
      ],
      "stateMutability": "view",
      "type": "function",
      "constant": true
    },
    {
      "inputs": [
        {
          "internalType": "uint256",
          "name": "",
          "type": "uint256"
        }
      ],
      "name": "firstOwners",
      "outputs": [
        {
          "internalType": "address",
          "name": "",
          "type": "address"
        }
      ],
      "stateMutability": "view",
      "type": "function",
      "constant": true
    },
    {
      "inputs": [],
      "name": "flor_price_pre_sale",
      "outputs": [
        {
          "internalType": "uint256",
          "name": "",
          "type": "uint256"
        }
      ],
      "stateMutability": "view",
      "type": "function",
      "constant": true
    },
    {
      "inputs": [
        {
          "internalType": "uint256",
          "name": "tokenId",
          "type": "uint256"
        }
      ],
      "name": "getApproved",
      "outputs": [
        {
          "internalType": "address",
          "name": "",
          "type": "address"
        }
      ],
      "stateMutability": "view",
      "type": "function",
      "constant": true
    },
    {
      "inputs": [
        {
          "internalType": "address",
          "name": "owner",
          "type": "address"
        },
        {
          "internalType": "address",
          "name": "operator",
          "type": "address"
        }
      ],
      "name": "isApprovedForAll",
      "outputs": [
        {
          "internalType": "bool",
          "name": "",
          "type": "bool"
        }
      ],
      "stateMutability": "view",
      "type": "function",
      "constant": true
    },
    {
      "inputs": [],
      "name": "maxAllowableMintPresale",
      "outputs": [
        {
          "internalType": "uint256",
          "name": "",
          "type": "uint256"
        }
      ],
      "stateMutability": "view",
      "type": "function",
      "constant": true
    },
    {
      "inputs": [],
      "name": "max_pre_sale_purchase",
      "outputs": [
        {
          "internalType": "uint256",
          "name": "",
          "type": "uint256"
        }
      ],
      "stateMutability": "view",
      "type": "function",
      "constant": true
    },
    {
      "inputs": [],
      "name": "max_pre_sale_quantity",
      "outputs": [
        {
          "internalType": "uint256",
          "name": "",
          "type": "uint256"
        }
      ],
      "stateMutability": "view",
      "type": "function",
      "constant": true
    },
    {
      "inputs": [],
      "name": "name",
      "outputs": [
        {
          "internalType": "string",
          "name": "",
          "type": "string"
        }
      ],
      "stateMutability": "view",
      "type": "function",
      "constant": true
    },
    {
      "inputs": [],
      "name": "owner",
      "outputs": [
        {
          "internalType": "address",
          "name": "",
          "type": "address"
        }
      ],
      "stateMutability": "view",
      "type": "function",
      "constant": true
    },
    {
      "inputs": [
        {
          "internalType": "uint256",
          "name": "tokenId",
          "type": "uint256"
        }
      ],
      "name": "ownerOf",
      "outputs": [
        {
          "internalType": "address",
          "name": "",
          "type": "address"
        }
      ],
      "stateMutability": "view",
      "type": "function",
      "constant": true
    },
    {
      "inputs": [],
      "name": "preSale",
      "outputs": [
        {
          "internalType": "bool",
          "name": "",
          "type": "bool"
        }
      ],
      "stateMutability": "view",
      "type": "function",
      "constant": true
    },
    {
      "inputs": [],
      "name": "renounceOwnership",
      "outputs": [],
      "stateMutability": "nonpayable",
      "type": "function"
    },
    {
      "inputs": [
        {
          "internalType": "address",
          "name": "from",
          "type": "address"
        },
        {
          "internalType": "address",
          "name": "to",
          "type": "address"
        },
        {
          "internalType": "uint256",
          "name": "tokenId",
          "type": "uint256"
        }
      ],
      "name": "safeTransferFrom",
      "outputs": [],
      "stateMutability": "nonpayable",
      "type": "function"
    },
    {
      "inputs": [
        {
          "internalType": "address",
          "name": "from",
          "type": "address"
        },
        {
          "internalType": "address",
          "name": "to",
          "type": "address"
        },
        {
          "internalType": "uint256",
          "name": "tokenId",
          "type": "uint256"
        },
        {
          "internalType": "bytes",
          "name": "_data",
          "type": "bytes"
        }
      ],
      "name": "safeTransferFrom",
      "outputs": [],
      "stateMutability": "nonpayable",
      "type": "function"
    },
    {
      "inputs": [],
      "name": "saleState",
      "outputs": [
        {
          "internalType": "enum CozyHome.State",
          "name": "",
          "type": "uint8"
        }
      ],
      "stateMutability": "view",
      "type": "function",
      "constant": true
    },
    {
      "inputs": [
        {
          "internalType": "address",
          "name": "operator",
          "type": "address"
        },
        {
          "internalType": "bool",
          "name": "approved",
          "type": "bool"
        }
      ],
      "name": "setApprovalForAll",
      "outputs": [],
      "stateMutability": "nonpayable",
      "type": "function"
    },
    {
      "inputs": [
        {
          "internalType": "bytes4",
          "name": "interfaceId",
          "type": "bytes4"
        }
      ],
      "name": "supportsInterface",
      "outputs": [
        {
          "internalType": "bool",
          "name": "",
          "type": "bool"
        }
      ],
      "stateMutability": "view",
      "type": "function",
      "constant": true
    },
    {
      "inputs": [],
      "name": "symbol",
      "outputs": [
        {
          "internalType": "string",
          "name": "",
          "type": "string"
        }
      ],
      "stateMutability": "view",
      "type": "function",
      "constant": true
    },
    {
      "inputs": [],
      "name": "total_first_mintable",
      "outputs": [
        {
          "internalType": "uint256",
          "name": "",
          "type": "uint256"
        }
      ],
      "stateMutability": "view",
      "type": "function",
      "constant": true
    },
    {
      "inputs": [
        {
          "internalType": "address",
          "name": "from",
          "type": "address"
        },
        {
          "internalType": "address",
          "name": "to",
          "type": "address"
        },
        {
          "internalType": "uint256",
          "name": "tokenId",
          "type": "uint256"
        }
      ],
      "name": "transferFrom",
      "outputs": [],
      "stateMutability": "nonpayable",
      "type": "function"
    },
    {
      "inputs": [
        {
          "internalType": "address",
          "name": "newOwner",
          "type": "address"
        }
      ],
      "name": "transferOwnership",
      "outputs": [],
      "stateMutability": "nonpayable",
      "type": "function"
    },
    {
      "stateMutability": "payable",
      "type": "receive",
      "payable": true
    },
    {
      "inputs": [
        {
          "internalType": "bool",
          "name": "_status",
          "type": "bool"
        }
      ],
      "name": "changePreSaleState",
      "outputs": [],
      "stateMutability": "nonpayable",
      "type": "function"
    },
    {
      "inputs": [
        {
          "internalType": "uint256",
          "name": "_new_price",
          "type": "uint256"
        }
      ],
      "name": "changeFlorPrice",
      "outputs": [],
      "stateMutability": "nonpayable",
      "type": "function"
    },
    {
      "inputs": [
        {
          "internalType": "uint256",
          "name": "_input",
          "type": "uint256"
        }
      ],
      "name": "changeSaleState",
      "outputs": [],
      "stateMutability": "nonpayable",
      "type": "function"
    },
    {
      "inputs": [],
      "name": "getSaleState",
      "outputs": [
        {
          "internalType": "enum CozyHome.State",
          "name": "",
          "type": "uint8"
        }
      ],
      "stateMutability": "view",
      "type": "function",
      "constant": true
    },
    {
      "inputs": [
        {
          "internalType": "address",
          "name": "_recipient",
          "type": "address"
        }
      ],
      "name": "mintCollectedAllowed",
      "outputs": [
        {
          "internalType": "bool",
          "name": "",
          "type": "bool"
        }
      ],
      "stateMutability": "view",
      "type": "function",
      "constant": true
    },
    {
      "inputs": [
        {
          "internalType": "address",
          "name": "_recipient",
          "type": "address"
        }
      ],
      "name": "getNumberOfCollected",
      "outputs": [
        {
          "internalType": "uint256",
          "name": "",
          "type": "uint256"
        }
      ],
      "stateMutability": "view",
      "type": "function",
      "constant": true
    },
    {
      "inputs": [
        {
          "internalType": "address",
          "name": "_recipient",
          "type": "address"
        },
        {
          "internalType": "uint256",
          "name": "_quantity",
          "type": "uint256"
        }
      ],
      "name": "numberOfMintable",
      "outputs": [
        {
          "internalType": "uint256",
          "name": "",
          "type": "uint256"
        }
      ],
      "stateMutability": "view",
      "type": "function",
      "constant": true
    },
    {
      "inputs": [
        {
          "internalType": "string",
          "name": "_baseURI",
          "type": "string"
        }
      ],
      "name": "setBaseURI",
      "outputs": [],
      "stateMutability": "nonpayable",
      "type": "function"
    },
    {
      "inputs": [],
      "name": "getBaseURI",
      "outputs": [
        {
          "internalType": "string",
          "name": "",
          "type": "string"
        }
      ],
      "stateMutability": "view",
      "type": "function",
      "constant": true
    },
    {
      "inputs": [
        {
          "internalType": "uint256",
          "name": "tokenId",
          "type": "uint256"
        }
      ],
      "name": "tokenURI",
      "outputs": [
        {
          "internalType": "string",
          "name": "",
          "type": "string"
        }
      ],
      "stateMutability": "view",
      "type": "function",
      "constant": true
    },
    {
      "inputs": [
        {
          "internalType": "address",
          "name": "_recipient",
          "type": "address"
        },
        {
          "internalType": "string",
          "name": "_tokenURI",
          "type": "string"
        }
      ],
      "name": "mintNow",
      "outputs": [
        {
          "internalType": "uint256",
          "name": "",
          "type": "uint256"
        }
      ],
      "stateMutability": "nonpayable",
      "type": "function"
    },
    {
      "inputs": [
        {
          "internalType": "address",
          "name": "_recipient",
          "type": "address"
        },
        {
          "internalType": "string",
          "name": "_tokenURI",
          "type": "string"
        },
        {
          "internalType": "uint256",
          "name": "_quantity",
          "type": "uint256"
        }
      ],
      "name": "preSaleMint",
      "outputs": [
        {
          "internalType": "uint256[]",
          "name": "",
          "type": "uint256[]"
        }
      ],
      "stateMutability": "payable",
      "type": "function",
      "payable": true
    },
    {
      "inputs": [],
      "name": "getWalletBalance",
      "outputs": [
        {
          "internalType": "uint256",
          "name": "",
          "type": "uint256"
        }
      ],
      "stateMutability": "view",
      "type": "function",
      "constant": true
    },
    {
      "inputs": [
        {
          "internalType": "address payable",
          "name": "_recipient",
          "type": "address"
        },
        {
          "internalType": "uint256",
          "name": "_amount",
          "type": "uint256"
        }
      ],
      "name": "transferContractBalance",
      "outputs": [
        {
          "internalType": "bool",
          "name": "",
          "type": "bool"
        }
      ],
      "stateMutability": "nonpayable",
      "type": "function"
    }
  ],
  "bytecode": "0x6080604052670429d069189e00006009556003600a55611a90600b556103e8600c556005600d55604051806060016040528060228152602001620044af60229139600e9080519060200190620000579291906200025b565b506001600f60006101000a81548160ff0219169083151502179055506000601660006101000a81548160ff021916908360018111156200009c576200009b6200030b565b5b0217905550604051620044d1380380620044d18339818101604052810190620000c691906200037a565b6040518060400160405280600881526020017f436f7a79486f6d650000000000000000000000000000000000000000000000008152506040518060400160405280600381526020017f4e4654000000000000000000000000000000000000000000000000000000000081525081600090805190602001906200014a9291906200025b565b508060019080519060200190620001639291906200025b565b505050620001866200017a6200018d60201b60201c565b6200019560201b60201c565b5062000411565b600033905090565b6000600760009054906101000a900473ffffffffffffffffffffffffffffffffffffffff16905081600760006101000a81548173ffffffffffffffffffffffffffffffffffffffff021916908373ffffffffffffffffffffffffffffffffffffffff1602179055508173ffffffffffffffffffffffffffffffffffffffff168173ffffffffffffffffffffffffffffffffffffffff167f8be0079c531659141344cd1fd0a4f28419497f9722a3daafe3b4186f6b6457e060405160405180910390a35050565b8280546200026990620003db565b90600052602060002090601f0160209004810192826200028d5760008555620002d9565b82601f10620002a857805160ff1916838001178555620002d9565b82800160010185558215620002d9579182015b82811115620002d8578251825591602001919060010190620002bb565b5b509050620002e89190620002ec565b5090565b5b8082111562000307576000816000905550600101620002ed565b5090565b7f4e487b7100000000000000000000000000000000000000000000000000000000600052602160045260246000fd5b600080fd5b6000819050919050565b62000354816200033f565b81146200036057600080fd5b50565b600081519050620003748162000349565b92915050565b6000602082840312156200039357620003926200033a565b5b6000620003a38482850162000363565b91505092915050565b7f4e487b7100000000000000000000000000000000000000000000000000000000600052602260045260246000fd5b60006002820490506001821680620003f457607f821691505b602082108114156200040b576200040a620003ac565b5b50919050565b61408e80620004216000396000f3fe60806040526004361061021e5760003560e01c806370a0823111610123578063b88d4fde116100ab578063e985e9c51161006f578063e985e9c514610855578063eae7d2d014610892578063efaff03c146108bb578063f2fde38b146108f8578063f55ae6e0146109215761025e565b8063b88d4fde1461075c578063c5b1374d14610785578063c87b56dd146107b0578063e1bd2abe146107ed578063e52ace55146108185761025e565b80638da5cb5b116100f25780638da5cb5b1461068457806395978604146106af57806395d89b41146106df578063a22cb4651461070a578063a776155d146107335761025e565b806370a08231146105dc578063714c539814610619578063715018a614610644578063743703a11461065b5761025e565b8063329a27e7116101a65780635a7adf7f116101755780635a7adf7f146104f3578063603f4d521461051e5780636352211e1461054957806366e71c01146105865780636abe3fce146105b15761025e565b8063329a27e71461043957806342842e0e146104645780634bf4d2671461048d57806355f804b3146104ca5761025e565b806310a5a3d9116101ed57806310a5a3d91461032e57806321677ae81461036b57806323b872dd146103a8578063255d474f146103d157806325bdb2a81461040e5761025e565b806301ffc9a71461026057806306fdde031461029d578063081812fc146102c8578063095ea7b3146103055761025e565b3661025e577f88a5966d370b9919b20f3e2c13ff65706f196a4e32cc2c12bf57088f885258743334604051610254929190612967565b60405180910390a1005b005b34801561026c57600080fd5b50610287600480360381019061028291906129fc565b61094c565b6040516102949190612a44565b60405180910390f35b3480156102a957600080fd5b506102b2610a2e565b6040516102bf9190612af8565b60405180910390f35b3480156102d457600080fd5b506102ef60048036038101906102ea9190612b46565b610ac0565b6040516102fc9190612b73565b60405180910390f35b34801561031157600080fd5b5061032c60048036038101906103279190612bba565b610b45565b005b34801561033a57600080fd5b5061035560048036038101906103509190612c38565b610c5d565b6040516103629190612a44565b60405180910390f35b34801561037757600080fd5b50610392600480360381019061038d9190612bba565b610d78565b60405161039f9190612c78565b60405180910390f35b3480156103b457600080fd5b506103cf60048036038101906103ca9190612c93565b610dbb565b005b3480156103dd57600080fd5b506103f860048036038101906103f39190612ce6565b610e1b565b6040516104059190612a44565b60405180910390f35b34801561041a57600080fd5b50610423610e7b565b6040516104309190612d8a565b60405180910390f35b34801561044557600080fd5b5061044e610e92565b60405161045b9190612c78565b60405180910390f35b34801561047057600080fd5b5061048b60048036038101906104869190612c93565b610f16565b005b34801561049957600080fd5b506104b460048036038101906104af9190612ce6565b610f36565b6040516104c19190612c78565b60405180910390f35b3480156104d657600080fd5b506104f160048036038101906104ec9190612eda565b610f82565b005b3480156104ff57600080fd5b50610508611018565b6040516105159190612a44565b60405180910390f35b34801561052a57600080fd5b5061053361102b565b6040516105409190612d8a565b60405180910390f35b34801561055557600080fd5b50610570600480360381019061056b9190612b46565b61103e565b60405161057d9190612b73565b60405180910390f35b34801561059257600080fd5b5061059b6110f0565b6040516105a89190612c78565b60405180910390f35b3480156105bd57600080fd5b506105c66110f6565b6040516105d39190612c78565b60405180910390f35b3480156105e857600080fd5b5061060360048036038101906105fe9190612ce6565b6110fc565b6040516106109190612c78565b60405180910390f35b34801561062557600080fd5b5061062e6111b4565b60405161063b9190612af8565b60405180910390f35b34801561065057600080fd5b506106596112c2565b005b34801561066757600080fd5b50610682600480360381019061067d9190612b46565b61134a565b005b34801561069057600080fd5b506106996113d0565b6040516106a69190612b73565b60405180910390f35b6106c960048036038101906106c49190612f23565b6113fa565b6040516106d69190613050565b60405180910390f35b3480156106eb57600080fd5b506106f46115ee565b6040516107019190612af8565b60405180910390f35b34801561071657600080fd5b50610731600480360381019061072c919061309e565b611680565b005b34801561073f57600080fd5b5061075a600480360381019061075591906130de565b611801565b005b34801561076857600080fd5b50610783600480360381019061077e91906131ac565b61189a565b005b34801561079157600080fd5b5061079a6118fc565b6040516107a79190612c78565b60405180910390f35b3480156107bc57600080fd5b506107d760048036038101906107d29190612b46565b611902565b6040516107e49190612af8565b60405180910390f35b3480156107f957600080fd5b50610802611a23565b60405161080f9190612c78565b60405180910390f35b34801561082457600080fd5b5061083f600480360381019061083a919061322f565b611a29565b60405161084c9190612c78565b60405180910390f35b34801561086157600080fd5b5061087c6004803603810190610877919061328b565b611abd565b6040516108899190612a44565b60405180910390f35b34801561089e57600080fd5b506108b960048036038101906108b49190612b46565b611b51565b005b3480156108c757600080fd5b506108e260048036038101906108dd9190612b46565b611c35565b6040516108ef9190612b73565b60405180910390f35b34801561090457600080fd5b5061091f600480360381019061091a9190612ce6565b611c68565b005b34801561092d57600080fd5b50610936611d60565b6040516109439190612c78565b60405180910390f35b60007f80ac58cd000000000000000000000000000000000000000000000000000000007bffffffffffffffffffffffffffffffffffffffffffffffffffffffff1916827bffffffffffffffffffffffffffffffffffffffffffffffffffffffff19161480610a1757507f5b5e139f000000000000000000000000000000000000000000000000000000007bffffffffffffffffffffffffffffffffffffffffffffffffffffffff1916827bffffffffffffffffffffffffffffffffffffffffffffffffffffffff1916145b80610a275750610a2682611d66565b5b9050919050565b606060008054610a3d906132fa565b80601f0160208091040260200160405190810160405280929190818152602001828054610a69906132fa565b8015610ab65780601f10610a8b57610100808354040283529160200191610ab6565b820191906000526020600020905b815481529060010190602001808311610a9957829003601f168201915b5050505050905090565b6000610acb82611dd0565b610b0a576040517f08c379a0000000000000000000000000000000000000000000000000000000008152600401610b019061339e565b60405180910390fd5b6004600083815260200190815260200160002060009054906101000a900473ffffffffffffffffffffffffffffffffffffffff169050919050565b6000610b508261103e565b90508073ffffffffffffffffffffffffffffffffffffffff168373ffffffffffffffffffffffffffffffffffffffff161415610bc1576040517f08c379a0000000000000000000000000000000000000000000000000000000008152600401610bb890613430565b60405180910390fd5b8073ffffffffffffffffffffffffffffffffffffffff16610be0611e3c565b73ffffffffffffffffffffffffffffffffffffffff161480610c0f5750610c0e81610c09611e3c565b611abd565b5b610c4e576040517f08c379a0000000000000000000000000000000000000000000000000000000008152600401610c45906134c2565b60405180910390fd5b610c588383611e44565b505050565b6000610c67611e3c565b73ffffffffffffffffffffffffffffffffffffffff16610c856113d0565b73ffffffffffffffffffffffffffffffffffffffff1614610cdb576040517f08c379a0000000000000000000000000000000000000000000000000000000008152600401610cd29061352e565b60405180910390fd5b81610ce4610e92565b811115610d26576040517f08c379a0000000000000000000000000000000000000000000000000000000008152600401610d1d9061359a565b60405180910390fd5b8373ffffffffffffffffffffffffffffffffffffffff166108fc849081150290604051600060405180830381858888f19350505050158015610d6c573d6000803e3d6000fd5b50600191505092915050565b600080610d8484610f36565b9050600d548184610d9591906135e9565b11610da35782915050610db5565b80600d54610db1919061363f565b9150505b92915050565b610dcc610dc6611e3c565b82611efd565b610e0b576040517f08c379a0000000000000000000000000000000000000000000000000000000008152600401610e02906136e5565b60405180910390fd5b610e16838383611fdb565b505050565b6000600d54601560008473ffffffffffffffffffffffffffffffffffffffff1673ffffffffffffffffffffffffffffffffffffffff1681526020019081526020016000208054905011610e715760019050610e76565b600090505b919050565b6000601660009054906101000a900460ff16905090565b6000610e9c611e3c565b73ffffffffffffffffffffffffffffffffffffffff16610eba6113d0565b73ffffffffffffffffffffffffffffffffffffffff1614610f10576040517f08c379a0000000000000000000000000000000000000000000000000000000008152600401610f079061352e565b60405180910390fd5b47905090565b610f318383836040518060200160405280600081525061189a565b505050565b6000601560008373ffffffffffffffffffffffffffffffffffffffff1673ffffffffffffffffffffffffffffffffffffffff168152602001908152602001600020805490509050919050565b610f8a611e3c565b73ffffffffffffffffffffffffffffffffffffffff16610fa86113d0565b73ffffffffffffffffffffffffffffffffffffffff1614610ffe576040517f08c379a0000000000000000000000000000000000000000000000000000000008152600401610ff59061352e565b60405180910390fd5b80600e908051906020019061101492919061286a565b5050565b600f60009054906101000a900460ff1681565b601660009054906101000a900460ff1681565b6000806002600084815260200190815260200160002060009054906101000a900473ffffffffffffffffffffffffffffffffffffffff169050600073ffffffffffffffffffffffffffffffffffffffff168173ffffffffffffffffffffffffffffffffffffffff1614156110e7576040517f08c379a00000000000000000000000000000000000000000000000000000000081526004016110de90613777565b60405180910390fd5b80915050919050565b600b5481565b600c5481565b60008073ffffffffffffffffffffffffffffffffffffffff168273ffffffffffffffffffffffffffffffffffffffff16141561116d576040517f08c379a000000000000000000000000000000000000000000000000000000000815260040161116490613809565b60405180910390fd5b600360008373ffffffffffffffffffffffffffffffffffffffff1673ffffffffffffffffffffffffffffffffffffffff168152602001908152602001600020549050919050565b60606111be611e3c565b73ffffffffffffffffffffffffffffffffffffffff166111dc6113d0565b73ffffffffffffffffffffffffffffffffffffffff1614611232576040517f08c379a00000000000000000000000000000000000000000000000000000000081526004016112299061352e565b60405180910390fd5b600e805461123f906132fa565b80601f016020809104026020016040519081016040528092919081815260200182805461126b906132fa565b80156112b85780601f1061128d576101008083540402835291602001916112b8565b820191906000526020600020905b81548152906001019060200180831161129b57829003601f168201915b5050505050905090565b6112ca611e3c565b73ffffffffffffffffffffffffffffffffffffffff166112e86113d0565b73ffffffffffffffffffffffffffffffffffffffff161461133e576040517f08c379a00000000000000000000000000000000000000000000000000000000081526004016113359061352e565b60405180910390fd5b6113486000612237565b565b611352611e3c565b73ffffffffffffffffffffffffffffffffffffffff166113706113d0565b73ffffffffffffffffffffffffffffffffffffffff16146113c6576040517f08c379a00000000000000000000000000000000000000000000000000000000081526004016113bd9061352e565b60405180910390fd5b8060098190555050565b6000600760009054906101000a900473ffffffffffffffffffffffffffffffffffffffff16905090565b6060600060018111156114105761140f612d13565b5b601660009054906101000a900460ff16600181111561143257611431612d13565b5b14611472576040517f08c379a000000000000000000000000000000000000000000000000000000000815260040161146990613875565b60405180910390fd5b60011515600f60009054906101000a900460ff161515146114c8576040517f08c379a00000000000000000000000000000000000000000000000000000000081526004016114bf906138e1565b60405180910390fd5b6114d184610e1b565b80156114df575081600d5410155b156115e65760006114f08584610d78565b905060008167ffffffffffffffff81111561150e5761150d612daf565b5b60405190808252806020026020018201604052801561153c5781602001602082028036833780820191505090505b5090508160095461154d9190613901565b341461158e576040517f08c379a0000000000000000000000000000000000000000000000000000000008152600401611585906139cd565b60405180910390fd5b60005b828110156115db5760006115a58888611a29565b9050808383815181106115bb576115ba6139ed565b5b6020026020010181815250505080806115d390613a1c565b915050611591565b5080925050506115e7565b5b9392505050565b6060600180546115fd906132fa565b80601f0160208091040260200160405190810160405280929190818152602001828054611629906132fa565b80156116765780601f1061164b57610100808354040283529160200191611676565b820191906000526020600020905b81548152906001019060200180831161165957829003601f168201915b5050505050905090565b611688611e3c565b73ffffffffffffffffffffffffffffffffffffffff168273ffffffffffffffffffffffffffffffffffffffff1614156116f6576040517f08c379a00000000000000000000000000000000000000000000000000000000081526004016116ed90613ab1565b60405180910390fd5b8060056000611703611e3c565b73ffffffffffffffffffffffffffffffffffffffff1673ffffffffffffffffffffffffffffffffffffffff16815260200190815260200160002060008473ffffffffffffffffffffffffffffffffffffffff1673ffffffffffffffffffffffffffffffffffffffff16815260200190815260200160002060006101000a81548160ff0219169083151502179055508173ffffffffffffffffffffffffffffffffffffffff166117b0611e3c565b73ffffffffffffffffffffffffffffffffffffffff167f17307eab39ab6107e8899845ad3d59bd9653f200f220920489ca2b5937696c31836040516117f59190612a44565b60405180910390a35050565b611809611e3c565b73ffffffffffffffffffffffffffffffffffffffff166118276113d0565b73ffffffffffffffffffffffffffffffffffffffff161461187d576040517f08c379a00000000000000000000000000000000000000000000000000000000081526004016118749061352e565b60405180910390fd5b80600f60006101000a81548160ff02191690831515021790555050565b6118ab6118a5611e3c565b83611efd565b6118ea576040517f08c379a00000000000000000000000000000000000000000000000000000000081526004016118e1906136e5565b60405180910390fd5b6118f6848484846122fd565b50505050565b60095481565b606061190d82611dd0565b61194c576040517f08c379a000000000000000000000000000000000000000000000000000000000815260040161194390613b43565b60405180910390fd5b600060136000848152602001908152602001600020805461196c906132fa565b80601f0160208091040260200160405190810160405280929190818152602001828054611998906132fa565b80156119e55780601f106119ba576101008083540402835291602001916119e5565b820191906000526020600020905b8154815290600101906020018083116119c857829003601f168201915b5050505050905060006119f6612359565b90508082604051602001611a0b929190613b9f565b60405160208183030381529060405292505050919050565b600a5481565b6000611a3560086123eb565b6000611a416008612401565b9050611a4d848261240f565b611a5781846125dd565b836014600083815260200190815260200160002060006101000a81548173ffffffffffffffffffffffffffffffffffffffff021916908373ffffffffffffffffffffffffffffffffffffffff160217905550611ab38482612651565b8091505092915050565b6000600560008473ffffffffffffffffffffffffffffffffffffffff1673ffffffffffffffffffffffffffffffffffffffff16815260200190815260200160002060008373ffffffffffffffffffffffffffffffffffffffff1673ffffffffffffffffffffffffffffffffffffffff16815260200190815260200160002060009054906101000a900460ff16905092915050565b611b59611e3c565b73ffffffffffffffffffffffffffffffffffffffff16611b776113d0565b73ffffffffffffffffffffffffffffffffffffffff1614611bcd576040517f08c379a0000000000000000000000000000000000000000000000000000000008152600401611bc49061352e565b60405180910390fd5b6000811415611c06576001601660006101000a81548160ff02191690836001811115611bfc57611bfb612d13565b5b0217905550611c32565b6000601660006101000a81548160ff02191690836001811115611c2c57611c2b612d13565b5b02179055505b50565b60146020528060005260406000206000915054906101000a900473ffffffffffffffffffffffffffffffffffffffff1681565b611c70611e3c565b73ffffffffffffffffffffffffffffffffffffffff16611c8e6113d0565b73ffffffffffffffffffffffffffffffffffffffff1614611ce4576040517f08c379a0000000000000000000000000000000000000000000000000000000008152600401611cdb9061352e565b60405180910390fd5b600073ffffffffffffffffffffffffffffffffffffffff168173ffffffffffffffffffffffffffffffffffffffff161415611d54576040517f08c379a0000000000000000000000000000000000000000000000000000000008152600401611d4b90613c35565b60405180910390fd5b611d5d81612237565b50565b600d5481565b60007f01ffc9a7000000000000000000000000000000000000000000000000000000007bffffffffffffffffffffffffffffffffffffffffffffffffffffffff1916827bffffffffffffffffffffffffffffffffffffffffffffffffffffffff1916149050919050565b60008073ffffffffffffffffffffffffffffffffffffffff166002600084815260200190815260200160002060009054906101000a900473ffffffffffffffffffffffffffffffffffffffff1673ffffffffffffffffffffffffffffffffffffffff1614159050919050565b600033905090565b816004600083815260200190815260200160002060006101000a81548173ffffffffffffffffffffffffffffffffffffffff021916908373ffffffffffffffffffffffffffffffffffffffff160217905550808273ffffffffffffffffffffffffffffffffffffffff16611eb78361103e565b73ffffffffffffffffffffffffffffffffffffffff167f8c5be1e5ebec7d5bd14f71427d1e84f3dd0314c0f7b2291e5b200ac8c7c3b92560405160405180910390a45050565b6000611f0882611dd0565b611f47576040517f08c379a0000000000000000000000000000000000000000000000000000000008152600401611f3e90613cc7565b60405180910390fd5b6000611f528361103e565b90508073ffffffffffffffffffffffffffffffffffffffff168473ffffffffffffffffffffffffffffffffffffffff161480611fc157508373ffffffffffffffffffffffffffffffffffffffff16611fa984610ac0565b73ffffffffffffffffffffffffffffffffffffffff16145b80611fd25750611fd18185611abd565b5b91505092915050565b8273ffffffffffffffffffffffffffffffffffffffff16611ffb8261103e565b73ffffffffffffffffffffffffffffffffffffffff1614612051576040517f08c379a000000000000000000000000000000000000000000000000000000000815260040161204890613d59565b60405180910390fd5b600073ffffffffffffffffffffffffffffffffffffffff168273ffffffffffffffffffffffffffffffffffffffff1614156120c1576040517f08c379a00000000000000000000000000000000000000000000000000000000081526004016120b890613deb565b60405180910390fd5b6120cc8383836126bb565b6120d7600082611e44565b6001600360008573ffffffffffffffffffffffffffffffffffffffff1673ffffffffffffffffffffffffffffffffffffffff1681526020019081526020016000206000828254612127919061363f565b925050819055506001600360008473ffffffffffffffffffffffffffffffffffffffff1673ffffffffffffffffffffffffffffffffffffffff168152602001908152602001600020600082825461217e91906135e9565b92505081905550816002600083815260200190815260200160002060006101000a81548173ffffffffffffffffffffffffffffffffffffffff021916908373ffffffffffffffffffffffffffffffffffffffff160217905550808273ffffffffffffffffffffffffffffffffffffffff168473ffffffffffffffffffffffffffffffffffffffff167fddf252ad1be2c89b69c2b068fc378daa952ba7f163c4a11628f55a4df523b3ef60405160405180910390a4505050565b6000600760009054906101000a900473ffffffffffffffffffffffffffffffffffffffff16905081600760006101000a81548173ffffffffffffffffffffffffffffffffffffffff021916908373ffffffffffffffffffffffffffffffffffffffff1602179055508173ffffffffffffffffffffffffffffffffffffffff168173ffffffffffffffffffffffffffffffffffffffff167f8be0079c531659141344cd1fd0a4f28419497f9722a3daafe3b4186f6b6457e060405160405180910390a35050565b612308848484611fdb565b612314848484846126c0565b612353576040517f08c379a000000000000000000000000000000000000000000000000000000000815260040161234a90613e7d565b60405180910390fd5b50505050565b6060600e8054612368906132fa565b80601f0160208091040260200160405190810160405280929190818152602001828054612394906132fa565b80156123e15780601f106123b6576101008083540402835291602001916123e1565b820191906000526020600020905b8154815290600101906020018083116123c457829003601f168201915b5050505050905090565b6001816000016000828254019250508190555050565b600081600001549050919050565b600073ffffffffffffffffffffffffffffffffffffffff168273ffffffffffffffffffffffffffffffffffffffff16141561247f576040517f08c379a000000000000000000000000000000000000000000000000000000000815260040161247690613ee9565b60405180910390fd5b61248881611dd0565b156124c8576040517f08c379a00000000000000000000000000000000000000000000000000000000081526004016124bf90613f55565b60405180910390fd5b6124d4600083836126bb565b6001600360008473ffffffffffffffffffffffffffffffffffffffff1673ffffffffffffffffffffffffffffffffffffffff168152602001908152602001600020600082825461252491906135e9565b92505081905550816002600083815260200190815260200160002060006101000a81548173ffffffffffffffffffffffffffffffffffffffff021916908373ffffffffffffffffffffffffffffffffffffffff160217905550808273ffffffffffffffffffffffffffffffffffffffff16600073ffffffffffffffffffffffffffffffffffffffff167fddf252ad1be2c89b69c2b068fc378daa952ba7f163c4a11628f55a4df523b3ef60405160405180910390a45050565b6125e682611dd0565b612625576040517f08c379a000000000000000000000000000000000000000000000000000000000815260040161261c90613b43565b60405180910390fd5b8060136000848152602001908152602001600020908051906020019061264c92919061286a565b505050565b601560008373ffffffffffffffffffffffffffffffffffffffff1673ffffffffffffffffffffffffffffffffffffffff1681526020019081526020016000208190806001815401808255809150506001900390600052602060002001600090919091909150555050565b505050565b60006126e18473ffffffffffffffffffffffffffffffffffffffff16612857565b1561284a578373ffffffffffffffffffffffffffffffffffffffff1663150b7a0261270a611e3c565b8786866040518563ffffffff1660e01b815260040161272c9493929190613fca565b602060405180830381600087803b15801561274657600080fd5b505af192505050801561277757506040513d601f19601f82011682018060405250810190612774919061402b565b60015b6127fa573d80600081146127a7576040519150601f19603f3d011682016040523d82523d6000602084013e6127ac565b606091505b506000815114156127f2576040517f08c379a00000000000000000000000000000000000000000000000000000000081526004016127e990613e7d565b60405180910390fd5b805181602001fd5b63150b7a0260e01b7bffffffffffffffffffffffffffffffffffffffffffffffffffffffff1916817bffffffffffffffffffffffffffffffffffffffffffffffffffffffff19161491505061284f565b600190505b949350505050565b600080823b905060008111915050919050565b828054612876906132fa565b90600052602060002090601f01602090048101928261289857600085556128df565b82601f106128b157805160ff19168380011785556128df565b828001600101855582156128df579182015b828111156128de5782518255916020019190600101906128c3565b5b5090506128ec91906128f0565b5090565b5b808211156129095760008160009055506001016128f1565b5090565b600073ffffffffffffffffffffffffffffffffffffffff82169050919050565b60006129388261290d565b9050919050565b6129488161292d565b82525050565b6000819050919050565b6129618161294e565b82525050565b600060408201905061297c600083018561293f565b6129896020830184612958565b9392505050565b6000604051905090565b600080fd5b600080fd5b60007fffffffff0000000000000000000000000000000000000000000000000000000082169050919050565b6129d9816129a4565b81146129e457600080fd5b50565b6000813590506129f6816129d0565b92915050565b600060208284031215612a1257612a1161299a565b5b6000612a20848285016129e7565b91505092915050565b60008115159050919050565b612a3e81612a29565b82525050565b6000602082019050612a596000830184612a35565b92915050565b600081519050919050565b600082825260208201905092915050565b60005b83811015612a99578082015181840152602081019050612a7e565b83811115612aa8576000848401525b50505050565b6000601f19601f8301169050919050565b6000612aca82612a5f565b612ad48185612a6a565b9350612ae4818560208601612a7b565b612aed81612aae565b840191505092915050565b60006020820190508181036000830152612b128184612abf565b905092915050565b612b238161294e565b8114612b2e57600080fd5b50565b600081359050612b4081612b1a565b92915050565b600060208284031215612b5c57612b5b61299a565b5b6000612b6a84828501612b31565b91505092915050565b6000602082019050612b88600083018461293f565b92915050565b612b978161292d565b8114612ba257600080fd5b50565b600081359050612bb481612b8e565b92915050565b60008060408385031215612bd157612bd061299a565b5b6000612bdf85828601612ba5565b9250506020612bf085828601612b31565b9150509250929050565b6000612c058261290d565b9050919050565b612c1581612bfa565b8114612c2057600080fd5b50565b600081359050612c3281612c0c565b92915050565b60008060408385031215612c4f57612c4e61299a565b5b6000612c5d85828601612c23565b9250506020612c6e85828601612b31565b9150509250929050565b6000602082019050612c8d6000830184612958565b92915050565b600080600060608486031215612cac57612cab61299a565b5b6000612cba86828701612ba5565b9350506020612ccb86828701612ba5565b9250506040612cdc86828701612b31565b9150509250925092565b600060208284031215612cfc57612cfb61299a565b5b6000612d0a84828501612ba5565b91505092915050565b7f4e487b7100000000000000000000000000000000000000000000000000000000600052602160045260246000fd5b60028110612d5357612d52612d13565b5b50565b6000819050612d6482612d42565b919050565b6000612d7482612d56565b9050919050565b612d8481612d69565b82525050565b6000602082019050612d9f6000830184612d7b565b92915050565b600080fd5b600080fd5b7f4e487b7100000000000000000000000000000000000000000000000000000000600052604160045260246000fd5b612de782612aae565b810181811067ffffffffffffffff82111715612e0657612e05612daf565b5b80604052505050565b6000612e19612990565b9050612e258282612dde565b919050565b600067ffffffffffffffff821115612e4557612e44612daf565b5b612e4e82612aae565b9050602081019050919050565b82818337600083830152505050565b6000612e7d612e7884612e2a565b612e0f565b905082815260208101848484011115612e9957612e98612daa565b5b612ea4848285612e5b565b509392505050565b600082601f830112612ec157612ec0612da5565b5b8135612ed1848260208601612e6a565b91505092915050565b600060208284031215612ef057612eef61299a565b5b600082013567ffffffffffffffff811115612f0e57612f0d61299f565b5b612f1a84828501612eac565b91505092915050565b600080600060608486031215612f3c57612f3b61299a565b5b6000612f4a86828701612ba5565b935050602084013567ffffffffffffffff811115612f6b57612f6a61299f565b5b612f7786828701612eac565b9250506040612f8886828701612b31565b9150509250925092565b600081519050919050565b600082825260208201905092915050565b6000819050602082019050919050565b612fc78161294e565b82525050565b6000612fd98383612fbe565b60208301905092915050565b6000602082019050919050565b6000612ffd82612f92565b6130078185612f9d565b935061301283612fae565b8060005b8381101561304357815161302a8882612fcd565b975061303583612fe5565b925050600181019050613016565b5085935050505092915050565b6000602082019050818103600083015261306a8184612ff2565b905092915050565b61307b81612a29565b811461308657600080fd5b50565b60008135905061309881613072565b92915050565b600080604083850312156130b5576130b461299a565b5b60006130c385828601612ba5565b92505060206130d485828601613089565b9150509250929050565b6000602082840312156130f4576130f361299a565b5b600061310284828501613089565b91505092915050565b600067ffffffffffffffff82111561312657613125612daf565b5b61312f82612aae565b9050602081019050919050565b600061314f61314a8461310b565b612e0f565b90508281526020810184848401111561316b5761316a612daa565b5b613176848285612e5b565b509392505050565b600082601f83011261319357613192612da5565b5b81356131a384826020860161313c565b91505092915050565b600080600080608085870312156131c6576131c561299a565b5b60006131d487828801612ba5565b94505060206131e587828801612ba5565b93505060406131f687828801612b31565b925050606085013567ffffffffffffffff8111156132175761321661299f565b5b6132238782880161317e565b91505092959194509250565b600080604083850312156132465761324561299a565b5b600061325485828601612ba5565b925050602083013567ffffffffffffffff8111156132755761327461299f565b5b61328185828601612eac565b9150509250929050565b600080604083850312156132a2576132a161299a565b5b60006132b085828601612ba5565b92505060206132c185828601612ba5565b9150509250929050565b7f4e487b7100000000000000000000000000000000000000000000000000000000600052602260045260246000fd5b6000600282049050600182168061331257607f821691505b60208210811415613326576133256132cb565b5b50919050565b7f4552433732313a20617070726f76656420717565727920666f72206e6f6e657860008201527f697374656e7420746f6b656e0000000000000000000000000000000000000000602082015250565b6000613388602c83612a6a565b91506133938261332c565b604082019050919050565b600060208201905081810360008301526133b78161337b565b9050919050565b7f4552433732313a20617070726f76616c20746f2063757272656e74206f776e6560008201527f7200000000000000000000000000000000000000000000000000000000000000602082015250565b600061341a602183612a6a565b9150613425826133be565b604082019050919050565b600060208201905081810360008301526134498161340d565b9050919050565b7f4552433732313a20617070726f76652063616c6c6572206973206e6f74206f7760008201527f6e6572206e6f7220617070726f76656420666f7220616c6c0000000000000000602082015250565b60006134ac603883612a6a565b91506134b782613450565b604082019050919050565b600060208201905081810360008301526134db8161349f565b9050919050565b7f4f776e61626c653a2063616c6c6572206973206e6f7420746865206f776e6572600082015250565b6000613518602083612a6a565b9150613523826134e2565b602082019050919050565b600060208201905081810360008301526135478161350b565b9050919050565b7f4e6f7420656e6f7567682062616c616e636520746f2073656e64210000000000600082015250565b6000613584601b83612a6a565b915061358f8261354e565b602082019050919050565b600060208201905081810360008301526135b381613577565b9050919050565b7f4e487b7100000000000000000000000000000000000000000000000000000000600052601160045260246000fd5b60006135f48261294e565b91506135ff8361294e565b9250827fffffffffffffffffffffffffffffffffffffffffffffffffffffffffffffffff03821115613634576136336135ba565b5b828201905092915050565b600061364a8261294e565b91506136558361294e565b925082821015613668576136676135ba565b5b828203905092915050565b7f4552433732313a207472616e736665722063616c6c6572206973206e6f74206f60008201527f776e6572206e6f7220617070726f766564000000000000000000000000000000602082015250565b60006136cf603183612a6a565b91506136da82613673565b604082019050919050565b600060208201905081810360008301526136fe816136c2565b9050919050565b7f4552433732313a206f776e657220717565727920666f72206e6f6e657869737460008201527f656e7420746f6b656e0000000000000000000000000000000000000000000000602082015250565b6000613761602983612a6a565b915061376c82613705565b604082019050919050565b6000602082019050818103600083015261379081613754565b9050919050565b7f4552433732313a2062616c616e636520717565727920666f7220746865207a6560008201527f726f206164647265737300000000000000000000000000000000000000000000602082015250565b60006137f3602a83612a6a565b91506137fe82613797565b604082019050919050565b60006020820190508181036000830152613822816137e6565b9050919050565b7f53616c65206973206e6f74207374617274656420796574210000000000000000600082015250565b600061385f601883612a6a565b915061386a82613829565b602082019050919050565b6000602082019050818103600083015261388e81613852565b9050919050565b7f50726573616c65206973206e6f74207374617274656420796574210000000000600082015250565b60006138cb601b83612a6a565b91506138d682613895565b602082019050919050565b600060208201905081810360008301526138fa816138be565b9050919050565b600061390c8261294e565b91506139178361294e565b9250817fffffffffffffffffffffffffffffffffffffffffffffffffffffffffffffffff04831182151516156139505761394f6135ba565b5b828202905092915050565b7f4552433732314d657461646174613a204e6f7420456e6f756768204d6f6e657960008201527f20546f204d696e74000000000000000000000000000000000000000000000000602082015250565b60006139b7602883612a6a565b91506139c28261395b565b604082019050919050565b600060208201905081810360008301526139e6816139aa565b9050919050565b7f4e487b7100000000000000000000000000000000000000000000000000000000600052603260045260246000fd5b6000613a278261294e565b91507fffffffffffffffffffffffffffffffffffffffffffffffffffffffffffffffff821415613a5a57613a596135ba565b5b600182019050919050565b7f4552433732313a20617070726f766520746f2063616c6c657200000000000000600082015250565b6000613a9b601983612a6a565b9150613aa682613a65565b602082019050919050565b60006020820190508181036000830152613aca81613a8e565b9050919050565b7f4552433732314d657461646174613a2055524920717565727920666f72206e6f60008201527f6e6578697374656e7420746f6b656e0000000000000000000000000000000000602082015250565b6000613b2d602f83612a6a565b9150613b3882613ad1565b604082019050919050565b60006020820190508181036000830152613b5c81613b20565b9050919050565b600081905092915050565b6000613b7982612a5f565b613b838185613b63565b9350613b93818560208601612a7b565b80840191505092915050565b6000613bab8285613b6e565b9150613bb78284613b6e565b91508190509392505050565b7f4f776e61626c653a206e6577206f776e657220697320746865207a65726f206160008201527f6464726573730000000000000000000000000000000000000000000000000000602082015250565b6000613c1f602683612a6a565b9150613c2a82613bc3565b604082019050919050565b60006020820190508181036000830152613c4e81613c12565b9050919050565b7f4552433732313a206f70657261746f7220717565727920666f72206e6f6e657860008201527f697374656e7420746f6b656e0000000000000000000000000000000000000000602082015250565b6000613cb1602c83612a6a565b9150613cbc82613c55565b604082019050919050565b60006020820190508181036000830152613ce081613ca4565b9050919050565b7f4552433732313a207472616e73666572206f6620746f6b656e2074686174206960008201527f73206e6f74206f776e0000000000000000000000000000000000000000000000602082015250565b6000613d43602983612a6a565b9150613d4e82613ce7565b604082019050919050565b60006020820190508181036000830152613d7281613d36565b9050919050565b7f4552433732313a207472616e7366657220746f20746865207a65726f2061646460008201527f7265737300000000000000000000000000000000000000000000000000000000602082015250565b6000613dd5602483612a6a565b9150613de082613d79565b604082019050919050565b60006020820190508181036000830152613e0481613dc8565b9050919050565b7f4552433732313a207472616e7366657220746f206e6f6e20455243373231526560008201527f63656976657220696d706c656d656e7465720000000000000000000000000000602082015250565b6000613e67603283612a6a565b9150613e7282613e0b565b604082019050919050565b60006020820190508181036000830152613e9681613e5a565b9050919050565b7f4552433732313a206d696e7420746f20746865207a65726f2061646472657373600082015250565b6000613ed3602083612a6a565b9150613ede82613e9d565b602082019050919050565b60006020820190508181036000830152613f0281613ec6565b9050919050565b7f4552433732313a20746f6b656e20616c7265616479206d696e74656400000000600082015250565b6000613f3f601c83612a6a565b9150613f4a82613f09565b602082019050919050565b60006020820190508181036000830152613f6e81613f32565b9050919050565b600081519050919050565b600082825260208201905092915050565b6000613f9c82613f75565b613fa68185613f80565b9350613fb6818560208601612a7b565b613fbf81612aae565b840191505092915050565b6000608082019050613fdf600083018761293f565b613fec602083018661293f565b613ff96040830185612958565b818103606083015261400b8184613f91565b905095945050505050565b600081519050614025816129d0565b92915050565b6000602082840312156140415761404061299a565b5b600061404f84828501614016565b9150509291505056fea26469706673582212203faee99ed425de20a1adb792151c640c147f6c121ea8036602c7b637d7c12a1464736f6c6343000809003368747470733a2f2f676174657761792e70696e6174612e636c6f75642f697066732f",
  "immutableReferences": {},
  "source": "// SPDX-License-Identifier: MIT\npragma solidity ^0.8.2;\nimport \"@openzeppelin/contracts/access/Ownable.sol\";\nimport \"@openzeppelin/contracts/utils/Counters.sol\";\nimport \"@openzeppelin/contracts/token/ERC721/ERC721.sol\";\nimport \"@openzeppelin/contracts/token/ERC721/extensions/ERC721URIStorage.sol\";\n\nstruct Investors {\n    address addr;\n    uint256 percentage;\n    string tokenId;\n}\n\ncontract CozyHome is ERC721URIStorage, Ownable {\n    function uint2str(uint256 _i) internal pure returns (string memory str) {\n        if (_i == 0) {\n            return \"0\";\n        }\n        uint256 j = _i;\n        uint256 length;\n        while (j != 0) {\n            length++;\n            j /= 10;\n        }\n        bytes memory bstr = new bytes(length);\n        uint256 k = length;\n        j = _i;\n        while (j != 0) {\n            bstr[--k] = bytes1(uint8(48 + (j % 10)));\n            j /= 10;\n        }\n        str = string(bstr);\n    }\n\n    using Counters for Counters.Counter;\n    Counters.Counter private _tokenIds;\n\n    uint256 public flor_price_pre_sale = 0.3 ether;\n    uint256 public max_pre_sale_purchase = 3;\n    uint256 public total_first_mintable = 6800;\n    uint256 public max_pre_sale_quantity = 1000;\n    uint256 public maxAllowableMintPresale = 5;\n    string private baseURI = \"https://gateway.pinata.cloud/ipfs/\";\n    bool public preSale = true;\n\n    Investors private investorsInheritance;\n\n    mapping(uint256 => string) private _tokenURIs;\n    mapping(uint256 => address) public firstOwners;\n    mapping(address => uint256[]) private mintOwners;\n\n    enum State {\n        Open,\n        Closed\n    }\n\n    State public saleState = State.Open;\n\n    /* ---------------------- Construction ---------------------- */\n    constructor(uint256 _percent) payable ERC721(\"CozyHome\", \"NFT\") {\n        // contract owner will have the first place to set inheritence percentage\n        // this number will be fixed for the contract like 0.05\n        // investorsInheritance.addr = msg.sender;\n        // investorsInheritance.percentage = _percent;\n    }\n\n    event Received(address, uint256);\n\n    fallback() external payable {}\n\n    receive() external payable {\n        emit Received(msg.sender, msg.value);\n    }\n\n    /*  ---------------------- Sale State Changes ----------------------  */\n    function changePreSaleState(bool _status) public onlyOwner {\n        preSale = _status;\n    }\n\n    function setInheritence(uint256 _buyer, uint256 _percent) private {\n        investorsInheritance.addr = msg.sender;\n        investorsInheritance.percentage = _percent;\n    }\n\n    function changeFlorPrice(uint256 _new_price) public onlyOwner {\n        flor_price_pre_sale = _new_price;\n    }\n\n    function changeSaleState(uint256 _input) public onlyOwner {\n        if (_input == 0) {\n            saleState = State.Closed;\n        } else {\n            saleState = State.Open;\n        }\n    }\n\n    function getSaleState() public view returns (State) {\n        return saleState;\n    }\n\n    /* ---------------------- Mint Related Operations ---------------------- */\n    function minterAdd(address _recipient, uint256 nftid) private {\n        mintOwners[_recipient].push(nftid);\n    }\n\n    function mintCollectedAllowed(address _recipient)\n        public\n        view\n        returns (bool)\n    {\n        if (mintOwners[_recipient].length <= maxAllowableMintPresale) {\n            return true;\n        } else {\n            return false;\n        }\n    }\n\n    function getNumberOfCollected(address _recipient)\n        public\n        view\n        returns (uint256)\n    {\n        return mintOwners[_recipient].length;\n    }\n\n    function numberOfMintable(address _recipient, uint256 _quantity)\n        public\n        view\n        returns (uint256)\n    {\n        uint256 number_of_collected = getNumberOfCollected(_recipient);\n        if ((_quantity + number_of_collected) <= maxAllowableMintPresale) {\n            return (_quantity);\n        } else {\n            return maxAllowableMintPresale - number_of_collected;\n        }\n    }\n\n    modifier saleStateCheck() {\n        require(saleState == State.Open, \"Sale is not started yet!\");\n        _;\n    }\n\n    modifier preSaleCheck() {\n        require(preSale == true, \"Presale is not started yet!\");\n        _;\n    }\n\n    /* ---------------------- NFTs Mint ---------------------- */\n\n    function setBaseURI(string memory _baseURI) external onlyOwner {\n        baseURI = _baseURI;\n    }\n\n    function getBaseURI() external view onlyOwner returns (string memory) {\n        return baseURI;\n    }\n\n    function _baseURI() internal view virtual override returns (string memory) {\n        return baseURI;\n    }\n\n    function _setTokenURI(uint256 tokenId, string memory _tokenURI)\n        internal\n        virtual\n        override\n    {\n        require(\n            _exists(tokenId),\n            \"ERC721Metadata: URI query for nonexistent token\"\n        );\n        _tokenURIs[tokenId] = _tokenURI;\n    }\n\n    function tokenURI(uint256 tokenId)\n        public\n        view\n        virtual\n        override\n        returns (string memory)\n    {\n        require(\n            _exists(tokenId),\n            \"ERC721Metadata: URI query for nonexistent token\"\n        );\n\n        string memory _tokenURI = _tokenURIs[tokenId];\n        string memory base = _baseURI();\n\n        return string(abi.encodePacked(base, _tokenURI));\n    }\n\n    function mintNow(address _recipient, string memory _tokenURI)\n        public\n        returns (uint256)\n    {\n        _tokenIds.increment();\n        uint256 newItemId = _tokenIds.current();\n\n        _mint(_recipient, newItemId);\n        _setTokenURI(newItemId, _tokenURI);\n\n        firstOwners[newItemId] = payable(_recipient);\n        minterAdd(_recipient, newItemId);\n\n        return newItemId;\n    }\n\n    function preSaleMint(\n        address _recipient,\n        string memory _tokenURI,\n        uint256 _quantity\n    ) public payable saleStateCheck preSaleCheck returns (uint256[] memory) {\n        if (\n            mintCollectedAllowed(_recipient) &&\n            maxAllowableMintPresale >= _quantity\n        ) {\n            uint256 number_of_mintable = numberOfMintable(\n                _recipient,\n                _quantity\n            );\n            uint256[] memory mintedItems = new uint256[](number_of_mintable);\n\n            require(\n                msg.value == flor_price_pre_sale * number_of_mintable,\n                \"ERC721Metadata: Not Enough Money To Mint\"\n            );\n            for (uint256 i = 0; i < number_of_mintable; i++) {\n                uint256 newItemId = mintNow(_recipient, _tokenURI);\n                mintedItems[i] = (newItemId);\n            }\n            return mintedItems;\n        } else {}\n    }\n\n    /* ---------------------- Wallet Finance Related ---------------------- */\n\n    function getWalletBalance() public view onlyOwner returns (uint256) {\n        return address(this).balance;\n    }\n\n    modifier sendableAmountCheck(uint256 _amount) {\n        require(_amount <= getWalletBalance(), \"Not enough balance to send!\");\n        _;\n    }\n\n    function transferContractBalance(\n        address payable _recipient,\n        uint256 _amount\n    ) public onlyOwner sendableAmountCheck(_amount) returns (bool) {\n        _recipient.transfer(_amount);\n        return true;\n    }\n}",
  "sourcePath": "/Users/akinipek/Projects/CozyRoom/my-pinata/contracts/CozyHome.sol",
  "compiler": {
    "name": "solc",
    "version": "0.8.9+commit.e5eed63a.Emscripten.clang"
  },
  "schemaVersion": "3.3.4",
  "updatedAt": "2021-11-14T14:05:02.075Z",
  "networkType": "ethereum",
  "devdoc": {
    "kind": "dev",
    "methods": {
      "approve(address,uint256)": {
        "details": "See {IERC721-approve}."
      },
      "balanceOf(address)": {
        "details": "See {IERC721-balanceOf}."
      },
      "getApproved(uint256)": {
        "details": "See {IERC721-getApproved}."
      },
      "isApprovedForAll(address,address)": {
        "details": "See {IERC721-isApprovedForAll}."
      },
      "name()": {
        "details": "See {IERC721Metadata-name}."
      },
      "owner()": {
        "details": "Returns the address of the current owner."
      },
      "ownerOf(uint256)": {
        "details": "See {IERC721-ownerOf}."
      },
      "renounceOwnership()": {
        "details": "Leaves the contract without owner. It will not be possible to call `onlyOwner` functions anymore. Can only be called by the current owner. NOTE: Renouncing ownership will leave the contract without an owner, thereby removing any functionality that is only available to the owner."
      },
      "safeTransferFrom(address,address,uint256)": {
        "details": "See {IERC721-safeTransferFrom}."
      },
      "safeTransferFrom(address,address,uint256,bytes)": {
        "details": "See {IERC721-safeTransferFrom}."
      },
      "setApprovalForAll(address,bool)": {
        "details": "See {IERC721-setApprovalForAll}."
      },
      "supportsInterface(bytes4)": {
        "details": "See {IERC165-supportsInterface}."
      },
      "symbol()": {
        "details": "See {IERC721Metadata-symbol}."
      },
      "tokenURI(uint256)": {
        "details": "See {IERC721Metadata-tokenURI}."
      },
      "transferFrom(address,address,uint256)": {
        "details": "See {IERC721-transferFrom}."
      },
      "transferOwnership(address)": {
        "details": "Transfers ownership of the contract to a new account (`newOwner`). Can only be called by the current owner."
      }
    },
    "version": 1
  },
  "userdoc": {
    "kind": "user",
    "methods": {},
    "version": 1
  }
}