{
  "contractName": "CozyHomeNFT",
  "abi": [
    {
      "inputs": [],
      "stateMutability": "payable",
      "type": "constructor",
      "payable": true
    },
    {
      "anonymous": false,
      "inputs": [
        {
          "indexed": true,
          "internalType": "address",
          "name": "owner",
          "type": "address"
        },
        {
          "indexed": true,
          "internalType": "address",
          "name": "approved",
          "type": "address"
        },
        {
          "indexed": true,
          "internalType": "uint256",
          "name": "tokenId",
          "type": "uint256"
        }
      ],
      "name": "Approval",
      "type": "event"
    },
    {
      "anonymous": false,
      "inputs": [
        {
          "indexed": true,
          "internalType": "address",
          "name": "owner",
          "type": "address"
        },
        {
          "indexed": true,
          "internalType": "address",
          "name": "operator",
          "type": "address"
        },
        {
          "indexed": false,
          "internalType": "bool",
          "name": "approved",
          "type": "bool"
        }
      ],
      "name": "ApprovalForAll",
      "type": "event"
    },
    {
      "anonymous": false,
      "inputs": [
        {
          "indexed": false,
          "internalType": "uint256",
          "name": "tokenId",
          "type": "uint256"
        },
        {
          "indexed": false,
          "internalType": "address",
          "name": "owner",
          "type": "address"
        }
      ],
      "name": "CozyMinted",
      "type": "event"
    },
    {
      "anonymous": false,
      "inputs": [
        {
          "indexed": false,
          "internalType": "address",
          "name": "",
          "type": "address"
        },
        {
          "indexed": false,
          "internalType": "uint256",
          "name": "",
          "type": "uint256"
        }
      ],
      "name": "ReceivedEth",
      "type": "event"
    },
    {
      "anonymous": false,
      "inputs": [
        {
          "indexed": true,
          "internalType": "address",
          "name": "from",
          "type": "address"
        },
        {
          "indexed": true,
          "internalType": "address",
          "name": "to",
          "type": "address"
        },
        {
          "indexed": true,
          "internalType": "uint256",
          "name": "tokenId",
          "type": "uint256"
        }
      ],
      "name": "Transfer",
      "type": "event"
    },
    {
      "stateMutability": "payable",
      "type": "fallback",
      "payable": true
    },
    {
      "inputs": [
        {
          "internalType": "address",
          "name": "to",
          "type": "address"
        },
        {
          "internalType": "uint256",
          "name": "tokenId",
          "type": "uint256"
        }
      ],
      "name": "approve",
      "outputs": [],
      "stateMutability": "nonpayable",
      "type": "function"
    },
    {
      "inputs": [
        {
          "internalType": "address",
          "name": "owner",
          "type": "address"
        }
      ],
      "name": "balanceOf",
      "outputs": [
        {
          "internalType": "uint256",
          "name": "",
          "type": "uint256"
        }
      ],
      "stateMutability": "view",
      "type": "function",
      "constant": true
    },
    {
      "inputs": [],
      "name": "floorPrice",
      "outputs": [
        {
          "internalType": "uint256",
          "name": "",
          "type": "uint256"
        }
      ],
      "stateMutability": "view",
      "type": "function",
      "constant": true
    },
    {
      "inputs": [
        {
          "internalType": "uint256",
          "name": "tokenId",
          "type": "uint256"
        }
      ],
      "name": "getApproved",
      "outputs": [
        {
          "internalType": "address",
          "name": "",
          "type": "address"
        }
      ],
      "stateMutability": "view",
      "type": "function",
      "constant": true
    },
    {
      "inputs": [
        {
          "internalType": "address",
          "name": "owner",
          "type": "address"
        },
        {
          "internalType": "address",
          "name": "operator",
          "type": "address"
        }
      ],
      "name": "isApprovedForAll",
      "outputs": [
        {
          "internalType": "bool",
          "name": "",
          "type": "bool"
        }
      ],
      "stateMutability": "view",
      "type": "function",
      "constant": true
    },
    {
      "inputs": [],
      "name": "name",
      "outputs": [
        {
          "internalType": "string",
          "name": "",
          "type": "string"
        }
      ],
      "stateMutability": "view",
      "type": "function",
      "constant": true
    },
    {
      "inputs": [],
      "name": "owner",
      "outputs": [
        {
          "internalType": "address payable",
          "name": "",
          "type": "address"
        }
      ],
      "stateMutability": "view",
      "type": "function",
      "constant": true
    },
    {
      "inputs": [
        {
          "internalType": "uint256",
          "name": "tokenId",
          "type": "uint256"
        }
      ],
      "name": "ownerOf",
      "outputs": [
        {
          "internalType": "address",
          "name": "",
          "type": "address"
        }
      ],
      "stateMutability": "view",
      "type": "function",
      "constant": true
    },
    {
      "inputs": [],
      "name": "preSale",
      "outputs": [
        {
          "internalType": "bool",
          "name": "",
          "type": "bool"
        }
      ],
      "stateMutability": "view",
      "type": "function",
      "constant": true
    },
    {
      "inputs": [],
      "name": "preSaleFloor",
      "outputs": [
        {
          "internalType": "uint256",
          "name": "",
          "type": "uint256"
        }
      ],
      "stateMutability": "view",
      "type": "function",
      "constant": true
    },
    {
      "inputs": [],
      "name": "preSaleSupply",
      "outputs": [
        {
          "internalType": "uint256",
          "name": "",
          "type": "uint256"
        }
      ],
      "stateMutability": "view",
      "type": "function",
      "constant": true
    },
    {
      "inputs": [
        {
          "internalType": "address",
          "name": "from",
          "type": "address"
        },
        {
          "internalType": "address",
          "name": "to",
          "type": "address"
        },
        {
          "internalType": "uint256",
          "name": "tokenId",
          "type": "uint256"
        }
      ],
      "name": "safeTransferFrom",
      "outputs": [],
      "stateMutability": "nonpayable",
      "type": "function"
    },
    {
      "inputs": [
        {
          "internalType": "address",
          "name": "from",
          "type": "address"
        },
        {
          "internalType": "address",
          "name": "to",
          "type": "address"
        },
        {
          "internalType": "uint256",
          "name": "tokenId",
          "type": "uint256"
        },
        {
          "internalType": "bytes",
          "name": "_data",
          "type": "bytes"
        }
      ],
      "name": "safeTransferFrom",
      "outputs": [],
      "stateMutability": "nonpayable",
      "type": "function"
    },
    {
      "inputs": [
        {
          "internalType": "address",
          "name": "operator",
          "type": "address"
        },
        {
          "internalType": "bool",
          "name": "approved",
          "type": "bool"
        }
      ],
      "name": "setApprovalForAll",
      "outputs": [],
      "stateMutability": "nonpayable",
      "type": "function"
    },
    {
      "inputs": [
        {
          "internalType": "bytes4",
          "name": "interfaceId",
          "type": "bytes4"
        }
      ],
      "name": "supportsInterface",
      "outputs": [
        {
          "internalType": "bool",
          "name": "",
          "type": "bool"
        }
      ],
      "stateMutability": "view",
      "type": "function",
      "constant": true
    },
    {
      "inputs": [],
      "name": "symbol",
      "outputs": [
        {
          "internalType": "string",
          "name": "",
          "type": "string"
        }
      ],
      "stateMutability": "view",
      "type": "function",
      "constant": true
    },
    {
      "inputs": [],
      "name": "totalSupply",
      "outputs": [
        {
          "internalType": "uint256",
          "name": "",
          "type": "uint256"
        }
      ],
      "stateMutability": "view",
      "type": "function",
      "constant": true
    },
    {
      "inputs": [
        {
          "internalType": "address",
          "name": "from",
          "type": "address"
        },
        {
          "internalType": "address",
          "name": "to",
          "type": "address"
        },
        {
          "internalType": "uint256",
          "name": "tokenId",
          "type": "uint256"
        }
      ],
      "name": "transferFrom",
      "outputs": [],
      "stateMutability": "nonpayable",
      "type": "function"
    },
    {
      "inputs": [],
      "name": "whiteListFloor",
      "outputs": [
        {
          "internalType": "uint256",
          "name": "",
          "type": "uint256"
        }
      ],
      "stateMutability": "view",
      "type": "function",
      "constant": true
    },
    {
      "stateMutability": "payable",
      "type": "receive",
      "payable": true
    },
    {
      "inputs": [
        {
          "internalType": "uint256",
          "name": "_new_price",
          "type": "uint256"
        },
        {
          "internalType": "uint256",
          "name": "_type",
          "type": "uint256"
        }
      ],
      "name": "changeFloorPrice",
      "outputs": [],
      "stateMutability": "nonpayable",
      "type": "function"
    },
    {
      "inputs": [],
      "name": "getWalletBalance",
      "outputs": [
        {
          "internalType": "uint256",
          "name": "",
          "type": "uint256"
        }
      ],
      "stateMutability": "view",
      "type": "function",
      "constant": true
    },
    {
      "inputs": [
        {
          "internalType": "address payable",
          "name": "_recipient",
          "type": "address"
        },
        {
          "internalType": "uint256",
          "name": "_amount",
          "type": "uint256"
        }
      ],
      "name": "transferContractBalance",
      "outputs": [
        {
          "internalType": "bool",
          "name": "",
          "type": "bool"
        }
      ],
      "stateMutability": "nonpayable",
      "type": "function"
    },
    {
      "inputs": [
        {
          "internalType": "string",
          "name": "_baseURILink",
          "type": "string"
        }
      ],
      "name": "setBaseURI",
      "outputs": [],
      "stateMutability": "nonpayable",
      "type": "function"
    },
    {
      "inputs": [],
      "name": "getBaseURI",
      "outputs": [
        {
          "internalType": "string",
          "name": "",
          "type": "string"
        }
      ],
      "stateMutability": "view",
      "type": "function",
      "constant": true
    },
    {
      "inputs": [
        {
          "internalType": "uint256",
          "name": "tokenId",
          "type": "uint256"
        }
      ],
      "name": "tokenURI",
      "outputs": [
        {
          "internalType": "string",
          "name": "",
          "type": "string"
        }
      ],
      "stateMutability": "view",
      "type": "function",
      "constant": true
    },
    {
      "inputs": [],
      "name": "mintableLeft",
      "outputs": [
        {
          "internalType": "uint256",
          "name": "",
          "type": "uint256"
        }
      ],
      "stateMutability": "view",
      "type": "function",
      "constant": true
    },
    {
      "inputs": [
        {
          "internalType": "uint256",
          "name": "_quantity",
          "type": "uint256"
        }
      ],
      "name": "changeSupply",
      "outputs": [],
      "stateMutability": "nonpayable",
      "type": "function"
    },
    {
      "inputs": [
        {
          "internalType": "bool",
          "name": "_state",
          "type": "bool"
        }
      ],
      "name": "changeSaleState",
      "outputs": [],
      "stateMutability": "nonpayable",
      "type": "function"
    },
    {
      "inputs": [
        {
          "internalType": "address",
          "name": "_recipient",
          "type": "address"
        },
        {
          "internalType": "uint256",
          "name": "_quantity",
          "type": "uint256"
        },
        {
          "internalType": "uint256",
          "name": "_whiteListCode",
          "type": "uint256"
        }
      ],
      "name": "mintSale",
      "outputs": [],
      "stateMutability": "payable",
      "type": "function",
      "payable": true
    }
  ],
  "bytecode": "0x60806040526103e8600855611f3f60095566b1a2bc2ec50000600a55666a94d74f430000600b556658d15e17628000600c55611012600d556001600e60006101000a81548160ff0219169083151502179055506040518060400160405280600d81526020017f436f7a7920486f6d65204e4654000000000000000000000000000000000000008152506040518060400160405280600381526020017f4e465400000000000000000000000000000000000000000000000000000000008152508160009080519060200190620000d692919062000139565b508060019080519060200190620000ef92919062000139565b50505033600e60016101000a81548173ffffffffffffffffffffffffffffffffffffffff021916908373ffffffffffffffffffffffffffffffffffffffff1602179055506200024e565b828054620001479062000218565b90600052602060002090601f0160209004810192826200016b5760008555620001b7565b82601f106200018657805160ff1916838001178555620001b7565b82800160010185558215620001b7579182015b82811115620001b657825182559160200191906001019062000199565b5b509050620001c69190620001ca565b5090565b5b80821115620001e5576000816000905550600101620001cb565b5090565b7f4e487b7100000000000000000000000000000000000000000000000000000000600052602260045260246000fd5b600060028204905060018216806200023157607f821691505b60208210811415620002485762000247620001e9565b5b50919050565b613884806200025e6000396000f3fe6080604052600436106101c65760003560e01c80635a7adf7f116100f7578063a0cebf6611610095578063b88d4fde11610064578063b88d4fde14610678578063c87b56dd146106a1578063e985e9c5146106de578063fd339f061461071b57610206565b8063a0cebf66146105d0578063a22cb465146105fb578063ac7dc68d14610624578063b322078d1461064f57610206565b8063714c5398116100d1578063714c5398146105245780638da5cb5b1461054f5780639363c8121461057a57806395d89b41146105a557610206565b80635a7adf7f1461047f5780636352211e146104aa57806370a08231146104e757610206565b806325ee2e2d1161016457806339a7919f1161013e57806339a7919f146103d957806342842e0e14610402578063432c41071461042b57806355f804b31461045657610206565b806325ee2e2d146103675780632e055bcc14610383578063329a27e7146103ae57610206565b8063095ea7b3116101a0578063095ea7b3146102ad57806310a5a3d9146102d657806318160ddd1461031357806323b872dd1461033e57610206565b806301ffc9a71461020857806306fdde0314610245578063081812fc1461027057610206565b36610206577f52a6cdf67c40ce333b3d846e4e143db87f71dd7935612a4cafcf6ba76047ca1f33346040516101fc9291906122ee565b60405180910390a1005b005b34801561021457600080fd5b5061022f600480360381019061022a9190612383565b610744565b60405161023c91906123cb565b60405180910390f35b34801561025157600080fd5b5061025a610826565b604051610267919061247f565b60405180910390f35b34801561027c57600080fd5b50610297600480360381019061029291906124cd565b6108b8565b6040516102a491906124fa565b60405180910390f35b3480156102b957600080fd5b506102d460048036038101906102cf9190612541565b61093d565b005b3480156102e257600080fd5b506102fd60048036038101906102f891906125bf565b610a55565b60405161030a91906123cb565b60405180910390f35b34801561031f57600080fd5b50610328610b84565b60405161033591906125ff565b60405180910390f35b34801561034a57600080fd5b506103656004803603810190610360919061261a565b610b8a565b005b610381600480360381019061037c919061266d565b610bea565b005b34801561038f57600080fd5b50610398610dbb565b6040516103a591906125ff565b60405180910390f35b3480156103ba57600080fd5b506103c3610dc1565b6040516103d091906125ff565b60405180910390f35b3480156103e557600080fd5b5061040060048036038101906103fb91906124cd565b610e5b565b005b34801561040e57600080fd5b506104296004803603810190610424919061261a565b610ef7565b005b34801561043757600080fd5b50610440610f17565b60405161044d91906125ff565b60405180910390f35b34801561046257600080fd5b5061047d600480360381019061047891906127f5565b610f1d565b005b34801561048b57600080fd5b50610494610fc9565b6040516104a191906123cb565b60405180910390f35b3480156104b657600080fd5b506104d160048036038101906104cc91906124cd565b610fdc565b6040516104de91906124fa565b60405180910390f35b3480156104f357600080fd5b5061050e6004803603810190610509919061283e565b61108e565b60405161051b91906125ff565b60405180910390f35b34801561053057600080fd5b50610539611146565b604051610546919061247f565b60405180910390f35b34801561055b57600080fd5b5061056461126a565b604051610571919061287a565b60405180910390f35b34801561058657600080fd5b5061058f611290565b60405161059c91906125ff565b60405180910390f35b3480156105b157600080fd5b506105ba611296565b6040516105c7919061247f565b60405180910390f35b3480156105dc57600080fd5b506105e5611328565b6040516105f291906125ff565b60405180910390f35b34801561060757600080fd5b50610622600480360381019061061d91906128c1565b61132e565b005b34801561063057600080fd5b506106396114af565b60405161064691906125ff565b60405180910390f35b34801561065b57600080fd5b5061067660048036038101906106719190612901565b6114c6565b005b34801561068457600080fd5b5061069f600480360381019061069a91906129cf565b611575565b005b3480156106ad57600080fd5b506106c860048036038101906106c391906124cd565b6115d7565b6040516106d5919061247f565b60405180910390f35b3480156106ea57600080fd5b5061070560048036038101906107009190612a52565b61167f565b60405161071291906123cb565b60405180910390f35b34801561072757600080fd5b50610742600480360381019061073d9190612a92565b611713565b005b60007f80ac58cd000000000000000000000000000000000000000000000000000000007bffffffffffffffffffffffffffffffffffffffffffffffffffffffff1916827bffffffffffffffffffffffffffffffffffffffffffffffffffffffff1916148061080f57507f5b5e139f000000000000000000000000000000000000000000000000000000007bffffffffffffffffffffffffffffffffffffffffffffffffffffffff1916827bffffffffffffffffffffffffffffffffffffffffffffffffffffffff1916145b8061081f575061081e826117e6565b5b9050919050565b60606000805461083590612b01565b80601f016020809104026020016040519081016040528092919081815260200182805461086190612b01565b80156108ae5780601f10610883576101008083540402835291602001916108ae565b820191906000526020600020905b81548152906001019060200180831161089157829003601f168201915b5050505050905090565b60006108c382611850565b610902576040517f08c379a00000000000000000000000000000000000000000000000000000000081526004016108f990612ba5565b60405180910390fd5b6004600083815260200190815260200160002060009054906101000a900473ffffffffffffffffffffffffffffffffffffffff169050919050565b600061094882610fdc565b90508073ffffffffffffffffffffffffffffffffffffffff168373ffffffffffffffffffffffffffffffffffffffff1614156109b9576040517f08c379a00000000000000000000000000000000000000000000000000000000081526004016109b090612c37565b60405180910390fd5b8073ffffffffffffffffffffffffffffffffffffffff166109d86118bc565b73ffffffffffffffffffffffffffffffffffffffff161480610a075750610a0681610a016118bc565b61167f565b5b610a46576040517f08c379a0000000000000000000000000000000000000000000000000000000008152600401610a3d90612cc9565b60405180910390fd5b610a5083836118c4565b505050565b600033600e60019054906101000a900473ffffffffffffffffffffffffffffffffffffffff1673ffffffffffffffffffffffffffffffffffffffff168173ffffffffffffffffffffffffffffffffffffffff1614610ae8576040517f08c379a0000000000000000000000000000000000000000000000000000000008152600401610adf90612d35565b60405180910390fd5b610af0610dc1565b831115610b32576040517f08c379a0000000000000000000000000000000000000000000000000000000008152600401610b2990612da1565b60405180910390fd5b8373ffffffffffffffffffffffffffffffffffffffff166108fc849081150290604051600060405180830381858888f19350505050158015610b78573d6000803e3d6000fd5b50600191505092915050565b60095481565b610b9b610b956118bc565b8261197d565b610bda576040517f08c379a0000000000000000000000000000000000000000000000000000000008152600401610bd190612e33565b60405180910390fd5b610be5838383611a5b565b505050565b600082118015610c095750600754600954610c059190612e82565b8211155b610c48576040517f08c379a0000000000000000000000000000000000000000000000000000000008152600401610c3f90612f02565b60405180910390fd5b6000600e60009054906101000a900460ff168015610c695750600854600754105b15610c8d57600d54821415610c8257600c549050610c88565b600b5490505b610c93565b600a5490505b600e60019054906101000a900473ffffffffffffffffffffffffffffffffffffffff1673ffffffffffffffffffffffffffffffffffffffff163373ffffffffffffffffffffffffffffffffffffffff1614610d36578281610cf49190612f22565b3414610d35576040517f08c379a0000000000000000000000000000000000000000000000000000000008152600401610d2c90612da1565b60405180910390fd5b5b6000600754905060005b84811015610dac578180610d5390612f7c565b925050610d608683611cb7565b7fff351ea0bd7fd7644f79e92fedc82a38a4f6425a33a6cb886774d80af83daa6e8287604051610d91929190612fc5565b60405180910390a18080610da490612f7c565b915050610d40565b50806007819055505050505050565b60085481565b600033600e60019054906101000a900473ffffffffffffffffffffffffffffffffffffffff1673ffffffffffffffffffffffffffffffffffffffff168173ffffffffffffffffffffffffffffffffffffffff1614610e54576040517f08c379a0000000000000000000000000000000000000000000000000000000008152600401610e4b90612d35565b60405180910390fd5b4791505090565b33600e60019054906101000a900473ffffffffffffffffffffffffffffffffffffffff1673ffffffffffffffffffffffffffffffffffffffff168173ffffffffffffffffffffffffffffffffffffffff1614610eec576040517f08c379a0000000000000000000000000000000000000000000000000000000008152600401610ee390612d35565b60405180910390fd5b816009819055505050565b610f1283838360405180602001604052806000815250611575565b505050565b600c5481565b33600e60019054906101000a900473ffffffffffffffffffffffffffffffffffffffff1673ffffffffffffffffffffffffffffffffffffffff168173ffffffffffffffffffffffffffffffffffffffff1614610fae576040517f08c379a0000000000000000000000000000000000000000000000000000000008152600401610fa590612d35565b60405180910390fd5b8160069080519060200190610fc49291906121f1565b505050565b600e60009054906101000a900460ff1681565b6000806002600084815260200190815260200160002060009054906101000a900473ffffffffffffffffffffffffffffffffffffffff169050600073ffffffffffffffffffffffffffffffffffffffff168173ffffffffffffffffffffffffffffffffffffffff161415611085576040517f08c379a000000000000000000000000000000000000000000000000000000000815260040161107c90613060565b60405180910390fd5b80915050919050565b60008073ffffffffffffffffffffffffffffffffffffffff168273ffffffffffffffffffffffffffffffffffffffff1614156110ff576040517f08c379a00000000000000000000000000000000000000000000000000000000081526004016110f6906130f2565b60405180910390fd5b600360008373ffffffffffffffffffffffffffffffffffffffff1673ffffffffffffffffffffffffffffffffffffffff168152602001908152602001600020549050919050565b606033600e60019054906101000a900473ffffffffffffffffffffffffffffffffffffffff1673ffffffffffffffffffffffffffffffffffffffff168173ffffffffffffffffffffffffffffffffffffffff16146111d9576040517f08c379a00000000000000000000000000000000000000000000000000000000081526004016111d090612d35565b60405180910390fd5b600680546111e690612b01565b80601f016020809104026020016040519081016040528092919081815260200182805461121290612b01565b801561125f5780601f106112345761010080835404028352916020019161125f565b820191906000526020600020905b81548152906001019060200180831161124257829003601f168201915b505050505091505090565b600e60019054906101000a900473ffffffffffffffffffffffffffffffffffffffff1681565b600a5481565b6060600180546112a590612b01565b80601f01602080910402602001604051908101604052809291908181526020018280546112d190612b01565b801561131e5780601f106112f35761010080835404028352916020019161131e565b820191906000526020600020905b81548152906001019060200180831161130157829003601f168201915b5050505050905090565b600b5481565b6113366118bc565b73ffffffffffffffffffffffffffffffffffffffff168273ffffffffffffffffffffffffffffffffffffffff1614156113a4576040517f08c379a000000000000000000000000000000000000000000000000000000000815260040161139b9061315e565b60405180910390fd5b80600560006113b16118bc565b73ffffffffffffffffffffffffffffffffffffffff1673ffffffffffffffffffffffffffffffffffffffff16815260200190815260200160002060008473ffffffffffffffffffffffffffffffffffffffff1673ffffffffffffffffffffffffffffffffffffffff16815260200190815260200160002060006101000a81548160ff0219169083151502179055508173ffffffffffffffffffffffffffffffffffffffff1661145e6118bc565b73ffffffffffffffffffffffffffffffffffffffff167f17307eab39ab6107e8899845ad3d59bd9653f200f220920489ca2b5937696c31836040516114a391906123cb565b60405180910390a35050565b60006007546009546114c19190612e82565b905090565b33600e60019054906101000a900473ffffffffffffffffffffffffffffffffffffffff1673ffffffffffffffffffffffffffffffffffffffff168173ffffffffffffffffffffffffffffffffffffffff1614611557576040517f08c379a000000000000000000000000000000000000000000000000000000000815260040161154e90612d35565b60405180910390fd5b81600e60006101000a81548160ff0219169083151502179055505050565b6115866115806118bc565b8361197d565b6115c5576040517f08c379a00000000000000000000000000000000000000000000000000000000081526004016115bc90612e33565b60405180910390fd5b6115d184848484611e85565b50505050565b60606115e282611850565b611621576040517f08c379a0000000000000000000000000000000000000000000000000000000008152600401611618906131ca565b60405180910390fd5b60006006805461163090612b01565b90501161164c5760405180602001604052806000815250611678565b600661165783611ee1565b604051602001611668929190613306565b6040516020818303038152906040525b9050919050565b6000600560008473ffffffffffffffffffffffffffffffffffffffff1673ffffffffffffffffffffffffffffffffffffffff16815260200190815260200160002060008373ffffffffffffffffffffffffffffffffffffffff1673ffffffffffffffffffffffffffffffffffffffff16815260200190815260200160002060009054906101000a900460ff16905092915050565b33600e60019054906101000a900473ffffffffffffffffffffffffffffffffffffffff1673ffffffffffffffffffffffffffffffffffffffff168173ffffffffffffffffffffffffffffffffffffffff16146117a4576040517f08c379a000000000000000000000000000000000000000000000000000000000815260040161179b90612d35565b60405180910390fd5b60008214156117b95782600a819055506117e1565b60018214156117ce5782600c819055506117e0565b60028214156117df5782600b819055505b5b5b505050565b60007f01ffc9a7000000000000000000000000000000000000000000000000000000007bffffffffffffffffffffffffffffffffffffffffffffffffffffffff1916827bffffffffffffffffffffffffffffffffffffffffffffffffffffffff1916149050919050565b60008073ffffffffffffffffffffffffffffffffffffffff166002600084815260200190815260200160002060009054906101000a900473ffffffffffffffffffffffffffffffffffffffff1673ffffffffffffffffffffffffffffffffffffffff1614159050919050565b600033905090565b816004600083815260200190815260200160002060006101000a81548173ffffffffffffffffffffffffffffffffffffffff021916908373ffffffffffffffffffffffffffffffffffffffff160217905550808273ffffffffffffffffffffffffffffffffffffffff1661193783610fdc565b73ffffffffffffffffffffffffffffffffffffffff167f8c5be1e5ebec7d5bd14f71427d1e84f3dd0314c0f7b2291e5b200ac8c7c3b92560405160405180910390a45050565b600061198882611850565b6119c7576040517f08c379a00000000000000000000000000000000000000000000000000000000081526004016119be906133a7565b60405180910390fd5b60006119d283610fdc565b90508073ffffffffffffffffffffffffffffffffffffffff168473ffffffffffffffffffffffffffffffffffffffff161480611a4157508373ffffffffffffffffffffffffffffffffffffffff16611a29846108b8565b73ffffffffffffffffffffffffffffffffffffffff16145b80611a525750611a51818561167f565b5b91505092915050565b8273ffffffffffffffffffffffffffffffffffffffff16611a7b82610fdc565b73ffffffffffffffffffffffffffffffffffffffff1614611ad1576040517f08c379a0000000000000000000000000000000000000000000000000000000008152600401611ac890613439565b60405180910390fd5b600073ffffffffffffffffffffffffffffffffffffffff168273ffffffffffffffffffffffffffffffffffffffff161415611b41576040517f08c379a0000000000000000000000000000000000000000000000000000000008152600401611b38906134cb565b60405180910390fd5b611b4c838383612042565b611b576000826118c4565b6001600360008573ffffffffffffffffffffffffffffffffffffffff1673ffffffffffffffffffffffffffffffffffffffff1681526020019081526020016000206000828254611ba79190612e82565b925050819055506001600360008473ffffffffffffffffffffffffffffffffffffffff1673ffffffffffffffffffffffffffffffffffffffff1681526020019081526020016000206000828254611bfe91906134eb565b92505081905550816002600083815260200190815260200160002060006101000a81548173ffffffffffffffffffffffffffffffffffffffff021916908373ffffffffffffffffffffffffffffffffffffffff160217905550808273ffffffffffffffffffffffffffffffffffffffff168473ffffffffffffffffffffffffffffffffffffffff167fddf252ad1be2c89b69c2b068fc378daa952ba7f163c4a11628f55a4df523b3ef60405160405180910390a4505050565b600073ffffffffffffffffffffffffffffffffffffffff168273ffffffffffffffffffffffffffffffffffffffff161415611d27576040517f08c379a0000000000000000000000000000000000000000000000000000000008152600401611d1e9061358d565b60405180910390fd5b611d3081611850565b15611d70576040517f08c379a0000000000000000000000000000000000000000000000000000000008152600401611d67906135f9565b60405180910390fd5b611d7c60008383612042565b6001600360008473ffffffffffffffffffffffffffffffffffffffff1673ffffffffffffffffffffffffffffffffffffffff1681526020019081526020016000206000828254611dcc91906134eb565b92505081905550816002600083815260200190815260200160002060006101000a81548173ffffffffffffffffffffffffffffffffffffffff021916908373ffffffffffffffffffffffffffffffffffffffff160217905550808273ffffffffffffffffffffffffffffffffffffffff16600073ffffffffffffffffffffffffffffffffffffffff167fddf252ad1be2c89b69c2b068fc378daa952ba7f163c4a11628f55a4df523b3ef60405160405180910390a45050565b611e90848484611a5b565b611e9c84848484612047565b611edb576040517f08c379a0000000000000000000000000000000000000000000000000000000008152600401611ed29061368b565b60405180910390fd5b50505050565b60606000821415611f29576040518060400160405280600181526020017f3000000000000000000000000000000000000000000000000000000000000000815250905061203d565b600082905060005b60008214611f5b578080611f4490612f7c565b915050600a82611f5491906136da565b9150611f31565b60008167ffffffffffffffff811115611f7757611f766126ca565b5b6040519080825280601f01601f191660200182016040528015611fa95781602001600182028036833780820191505090505b5090505b6000851461203657600182611fc29190612e82565b9150600a85611fd1919061370b565b6030611fdd91906134eb565b60f81b818381518110611ff357611ff261373c565b5b60200101907effffffffffffffffffffffffffffffffffffffffffffffffffffffffffffff1916908160001a905350600a8561202f91906136da565b9450611fad565b8093505050505b919050565b505050565b60006120688473ffffffffffffffffffffffffffffffffffffffff166121de565b156121d1578373ffffffffffffffffffffffffffffffffffffffff1663150b7a026120916118bc565b8786866040518563ffffffff1660e01b81526004016120b394939291906137c0565b602060405180830381600087803b1580156120cd57600080fd5b505af19250505080156120fe57506040513d601f19601f820116820180604052508101906120fb9190613821565b60015b612181573d806000811461212e576040519150601f19603f3d011682016040523d82523d6000602084013e612133565b606091505b50600081511415612179576040517f08c379a00000000000000000000000000000000000000000000000000000000081526004016121709061368b565b60405180910390fd5b805181602001fd5b63150b7a0260e01b7bffffffffffffffffffffffffffffffffffffffffffffffffffffffff1916817bffffffffffffffffffffffffffffffffffffffffffffffffffffffff1916149150506121d6565b600190505b949350505050565b600080823b905060008111915050919050565b8280546121fd90612b01565b90600052602060002090601f01602090048101928261221f5760008555612266565b82601f1061223857805160ff1916838001178555612266565b82800160010185558215612266579182015b8281111561226557825182559160200191906001019061224a565b5b5090506122739190612277565b5090565b5b80821115612290576000816000905550600101612278565b5090565b600073ffffffffffffffffffffffffffffffffffffffff82169050919050565b60006122bf82612294565b9050919050565b6122cf816122b4565b82525050565b6000819050919050565b6122e8816122d5565b82525050565b600060408201905061230360008301856122c6565b61231060208301846122df565b9392505050565b6000604051905090565b600080fd5b600080fd5b60007fffffffff0000000000000000000000000000000000000000000000000000000082169050919050565b6123608161232b565b811461236b57600080fd5b50565b60008135905061237d81612357565b92915050565b60006020828403121561239957612398612321565b5b60006123a78482850161236e565b91505092915050565b60008115159050919050565b6123c5816123b0565b82525050565b60006020820190506123e060008301846123bc565b92915050565b600081519050919050565b600082825260208201905092915050565b60005b83811015612420578082015181840152602081019050612405565b8381111561242f576000848401525b50505050565b6000601f19601f8301169050919050565b6000612451826123e6565b61245b81856123f1565b935061246b818560208601612402565b61247481612435565b840191505092915050565b600060208201905081810360008301526124998184612446565b905092915050565b6124aa816122d5565b81146124b557600080fd5b50565b6000813590506124c7816124a1565b92915050565b6000602082840312156124e3576124e2612321565b5b60006124f1848285016124b8565b91505092915050565b600060208201905061250f60008301846122c6565b92915050565b61251e816122b4565b811461252957600080fd5b50565b60008135905061253b81612515565b92915050565b6000806040838503121561255857612557612321565b5b60006125668582860161252c565b9250506020612577858286016124b8565b9150509250929050565b600061258c82612294565b9050919050565b61259c81612581565b81146125a757600080fd5b50565b6000813590506125b981612593565b92915050565b600080604083850312156125d6576125d5612321565b5b60006125e4858286016125aa565b92505060206125f5858286016124b8565b9150509250929050565b600060208201905061261460008301846122df565b92915050565b60008060006060848603121561263357612632612321565b5b60006126418682870161252c565b93505060206126528682870161252c565b9250506040612663868287016124b8565b9150509250925092565b60008060006060848603121561268657612685612321565b5b60006126948682870161252c565b93505060206126a5868287016124b8565b92505060406126b6868287016124b8565b9150509250925092565b600080fd5b600080fd5b7f4e487b7100000000000000000000000000000000000000000000000000000000600052604160045260246000fd5b61270282612435565b810181811067ffffffffffffffff82111715612721576127206126ca565b5b80604052505050565b6000612734612317565b905061274082826126f9565b919050565b600067ffffffffffffffff8211156127605761275f6126ca565b5b61276982612435565b9050602081019050919050565b82818337600083830152505050565b600061279861279384612745565b61272a565b9050828152602081018484840111156127b4576127b36126c5565b5b6127bf848285612776565b509392505050565b600082601f8301126127dc576127db6126c0565b5b81356127ec848260208601612785565b91505092915050565b60006020828403121561280b5761280a612321565b5b600082013567ffffffffffffffff81111561282957612828612326565b5b612835848285016127c7565b91505092915050565b60006020828403121561285457612853612321565b5b60006128628482850161252c565b91505092915050565b61287481612581565b82525050565b600060208201905061288f600083018461286b565b92915050565b61289e816123b0565b81146128a957600080fd5b50565b6000813590506128bb81612895565b92915050565b600080604083850312156128d8576128d7612321565b5b60006128e68582860161252c565b92505060206128f7858286016128ac565b9150509250929050565b60006020828403121561291757612916612321565b5b6000612925848285016128ac565b91505092915050565b600067ffffffffffffffff821115612949576129486126ca565b5b61295282612435565b9050602081019050919050565b600061297261296d8461292e565b61272a565b90508281526020810184848401111561298e5761298d6126c5565b5b612999848285612776565b509392505050565b600082601f8301126129b6576129b56126c0565b5b81356129c684826020860161295f565b91505092915050565b600080600080608085870312156129e9576129e8612321565b5b60006129f78782880161252c565b9450506020612a088782880161252c565b9350506040612a19878288016124b8565b925050606085013567ffffffffffffffff811115612a3a57612a39612326565b5b612a46878288016129a1565b91505092959194509250565b60008060408385031215612a6957612a68612321565b5b6000612a778582860161252c565b9250506020612a888582860161252c565b9150509250929050565b60008060408385031215612aa957612aa8612321565b5b6000612ab7858286016124b8565b9250506020612ac8858286016124b8565b9150509250929050565b7f4e487b7100000000000000000000000000000000000000000000000000000000600052602260045260246000fd5b60006002820490506001821680612b1957607f821691505b60208210811415612b2d57612b2c612ad2565b5b50919050565b7f4552433732313a20617070726f76656420717565727920666f72206e6f6e657860008201527f697374656e7420746f6b656e0000000000000000000000000000000000000000602082015250565b6000612b8f602c836123f1565b9150612b9a82612b33565b604082019050919050565b60006020820190508181036000830152612bbe81612b82565b9050919050565b7f4552433732313a20617070726f76616c20746f2063757272656e74206f776e6560008201527f7200000000000000000000000000000000000000000000000000000000000000602082015250565b6000612c216021836123f1565b9150612c2c82612bc5565b604082019050919050565b60006020820190508181036000830152612c5081612c14565b9050919050565b7f4552433732313a20617070726f76652063616c6c6572206973206e6f74206f7760008201527f6e6572206e6f7220617070726f76656420666f7220616c6c0000000000000000602082015250565b6000612cb36038836123f1565b9150612cbe82612c57565b604082019050919050565b60006020820190508181036000830152612ce281612ca6565b9050919050565b7f4e6f742061206f776e65722063616c6c21000000000000000000000000000000600082015250565b6000612d1f6011836123f1565b9150612d2a82612ce9565b602082019050919050565b60006020820190508181036000830152612d4e81612d12565b9050919050565b7f4e6f7420456e6f7567682042616c616e63652100000000000000000000000000600082015250565b6000612d8b6013836123f1565b9150612d9682612d55565b602082019050919050565b60006020820190508181036000830152612dba81612d7e565b9050919050565b7f4552433732313a207472616e736665722063616c6c6572206973206e6f74206f60008201527f776e6572206e6f7220617070726f766564000000000000000000000000000000602082015250565b6000612e1d6031836123f1565b9150612e2882612dc1565b604082019050919050565b60006020820190508181036000830152612e4c81612e10565b9050919050565b7f4e487b7100000000000000000000000000000000000000000000000000000000600052601160045260246000fd5b6000612e8d826122d5565b9150612e98836122d5565b925082821015612eab57612eaa612e53565b5b828203905092915050565b7f4e6f7420456e6f75676820526573657276652100000000000000000000000000600082015250565b6000612eec6013836123f1565b9150612ef782612eb6565b602082019050919050565b60006020820190508181036000830152612f1b81612edf565b9050919050565b6000612f2d826122d5565b9150612f38836122d5565b9250817fffffffffffffffffffffffffffffffffffffffffffffffffffffffffffffffff0483118215151615612f7157612f70612e53565b5b828202905092915050565b6000612f87826122d5565b91507fffffffffffffffffffffffffffffffffffffffffffffffffffffffffffffffff821415612fba57612fb9612e53565b5b600182019050919050565b6000604082019050612fda60008301856122df565b612fe760208301846122c6565b9392505050565b7f4552433732313a206f776e657220717565727920666f72206e6f6e657869737460008201527f656e7420746f6b656e0000000000000000000000000000000000000000000000602082015250565b600061304a6029836123f1565b915061305582612fee565b604082019050919050565b600060208201905081810360008301526130798161303d565b9050919050565b7f4552433732313a2062616c616e636520717565727920666f7220746865207a6560008201527f726f206164647265737300000000000000000000000000000000000000000000602082015250565b60006130dc602a836123f1565b91506130e782613080565b604082019050919050565b6000602082019050818103600083015261310b816130cf565b9050919050565b7f4552433732313a20617070726f766520746f2063616c6c657200000000000000600082015250565b60006131486019836123f1565b915061315382613112565b602082019050919050565b600060208201905081810360008301526131778161313b565b9050919050565b7f4e6f6e6578697374656e7420746f6b656e210000000000000000000000000000600082015250565b60006131b46012836123f1565b91506131bf8261317e565b602082019050919050565b600060208201905081810360008301526131e3816131a7565b9050919050565b600081905092915050565b60008190508160005260206000209050919050565b6000815461321781612b01565b61322181866131ea565b9450600182166000811461323c576001811461324d57613280565b60ff19831686528186019350613280565b613256856131f5565b60005b8381101561327857815481890152600182019150602081019050613259565b838801955050505b50505092915050565b6000613294826123e6565b61329e81856131ea565b93506132ae818560208601612402565b80840191505092915050565b7f2e6a736f6e000000000000000000000000000000000000000000000000000000600082015250565b60006132f06005836131ea565b91506132fb826132ba565b600582019050919050565b6000613312828561320a565b915061331e8284613289565b9150613329826132e3565b91508190509392505050565b7f4552433732313a206f70657261746f7220717565727920666f72206e6f6e657860008201527f697374656e7420746f6b656e0000000000000000000000000000000000000000602082015250565b6000613391602c836123f1565b915061339c82613335565b604082019050919050565b600060208201905081810360008301526133c081613384565b9050919050565b7f4552433732313a207472616e73666572206f6620746f6b656e2074686174206960008201527f73206e6f74206f776e0000000000000000000000000000000000000000000000602082015250565b60006134236029836123f1565b915061342e826133c7565b604082019050919050565b6000602082019050818103600083015261345281613416565b9050919050565b7f4552433732313a207472616e7366657220746f20746865207a65726f2061646460008201527f7265737300000000000000000000000000000000000000000000000000000000602082015250565b60006134b56024836123f1565b91506134c082613459565b604082019050919050565b600060208201905081810360008301526134e4816134a8565b9050919050565b60006134f6826122d5565b9150613501836122d5565b9250827fffffffffffffffffffffffffffffffffffffffffffffffffffffffffffffffff0382111561353657613535612e53565b5b828201905092915050565b7f4552433732313a206d696e7420746f20746865207a65726f2061646472657373600082015250565b60006135776020836123f1565b915061358282613541565b602082019050919050565b600060208201905081810360008301526135a68161356a565b9050919050565b7f4552433732313a20746f6b656e20616c7265616479206d696e74656400000000600082015250565b60006135e3601c836123f1565b91506135ee826135ad565b602082019050919050565b60006020820190508181036000830152613612816135d6565b9050919050565b7f4552433732313a207472616e7366657220746f206e6f6e20455243373231526560008201527f63656976657220696d706c656d656e7465720000000000000000000000000000602082015250565b60006136756032836123f1565b915061368082613619565b604082019050919050565b600060208201905081810360008301526136a481613668565b9050919050565b7f4e487b7100000000000000000000000000000000000000000000000000000000600052601260045260246000fd5b60006136e5826122d5565b91506136f0836122d5565b925082613700576136ff6136ab565b5b828204905092915050565b6000613716826122d5565b9150613721836122d5565b925082613731576137306136ab565b5b828206905092915050565b7f4e487b7100000000000000000000000000000000000000000000000000000000600052603260045260246000fd5b600081519050919050565b600082825260208201905092915050565b60006137928261376b565b61379c8185613776565b93506137ac818560208601612402565b6137b581612435565b840191505092915050565b60006080820190506137d560008301876122c6565b6137e260208301866122c6565b6137ef60408301856122df565b81810360608301526138018184613787565b905095945050505050565b60008151905061381b81612357565b92915050565b60006020828403121561383757613836612321565b5b60006138458482850161380c565b9150509291505056fea264697066735822122071cd220b3d87b25110a8917ce35d8a1446a2eed2fe2e52f986c98d69af844b3764736f6c63430008090033",
  "immutableReferences": {},
  "source": "// SPDX-License-Identifier: MIT\npragma solidity ^0.8.2;\nimport \"@openzeppelin/contracts/token/ERC721/ERC721.sol\";\n\ncontract CozyHomeNFT is ERC721 {\n    using Strings for uint256;\n\n    string private baseURI;\n    uint256 private _tokenIds;\n    uint256 public preSaleSupply = 1000;\n    uint256 public totalSupply = 7999;\n    uint256 public floorPrice = 0.05 ether;\n    uint256 public preSaleFloor = 0.03 ether;\n    uint256 public whiteListFloor = 0.025 ether;\n\n    uint256 private whiteListCode = 4114;\n    bool public preSale = true;\n    address payable public owner;\n\n    event CozyMinted(uint256 tokenId, address owner);\n    event ReceivedEth(address, uint256);\n\n    constructor() payable ERC721(\"Cozy Home NFT\", \"NFT\") {\n        owner = payable(msg.sender);\n    }\n\n    modifier onlyOwner(address sender) {\n        require(sender == owner, \"Not a owner call!\");\n        _;\n    }\n\n    // State Changes\n    function changeFloorPrice(uint256 _new_price, uint256 _type)\n        external\n        onlyOwner(msg.sender)\n    {\n        if (_type == 0) {\n            floorPrice = _new_price;\n        } else if (_type == 1) {\n            whiteListFloor = _new_price;\n        } else if (_type == 2) {\n            preSaleFloor = _new_price;\n        }\n    }\n\n    // Get Information\n    function getWalletBalance()\n        public\n        view\n        onlyOwner(msg.sender)\n        returns (uint256)\n    {\n        return address(this).balance;\n    }\n\n    // Contract ETH Relationship\n    fallback() external payable {}\n\n    receive() external payable {\n        emit ReceivedEth(msg.sender, msg.value);\n    }\n\n    function transferContractBalance(\n        address payable _recipient,\n        uint256 _amount\n    ) external onlyOwner(msg.sender) returns (bool) {\n        require(_amount <= getWalletBalance(), \"Not Enough Balance!\");\n        _recipient.transfer(_amount);\n        return true;\n    }\n\n    // NFT Minting Related\n    function setBaseURI(string memory _baseURILink)\n        external\n        onlyOwner(msg.sender)\n    {\n        baseURI = _baseURILink;\n    }\n\n    function getBaseURI()\n        external\n        view\n        onlyOwner(msg.sender)\n        returns (string memory)\n    {\n        return baseURI;\n    }\n\n    function _baseURI() internal view virtual override returns (string memory) {\n        return baseURI;\n    }\n\n    function tokenURI(uint256 tokenId)\n        public\n        view\n        virtual\n        override\n        returns (string memory)\n    {\n        require(_exists(tokenId), \"Nonexistent token!\");\n\n        return\n            bytes(baseURI).length > 0\n                ? string(abi.encodePacked(baseURI, tokenId.toString(), \".json\"))\n                : \"\";\n    }\n\n    function mintableLeft() external view returns (uint256) {\n        return totalSupply - _tokenIds;\n    }\n\n    function changeSupply(uint256 _quantity) external onlyOwner(msg.sender) {\n        totalSupply = _quantity;\n    }\n\n    function changeSaleState(bool _state) external onlyOwner(msg.sender) {\n        preSale = _state;\n    }\n\n    function mintSale(\n        address _recipient,\n        uint256 _quantity,\n        uint256 _whiteListCode\n    ) public payable {\n        require(\n            _quantity > 0 && _quantity <= (totalSupply - _tokenIds),\n            \"Not Enough Reserve!\"\n        );\n\n        uint256 _floorPrice;\n        if (preSale && (_tokenIds < preSaleSupply)) {\n            if (_whiteListCode == whiteListCode) {\n                _floorPrice = whiteListFloor;\n            } else {\n                _floorPrice = preSaleFloor;\n            }\n        } else {\n            _floorPrice = floorPrice;\n        }\n\n        if (msg.sender != owner) {\n            require(\n                msg.value == _floorPrice * _quantity,\n                \"Not Enough Balance!\"\n            );\n        }\n        uint256 j = _tokenIds;\n        for (uint256 i = 0; i < _quantity; i++) {\n            j++;\n            _mint(_recipient, j);\n            emit CozyMinted(j, _recipient);\n        }\n        _tokenIds = j;\n    }\n}\n",
  "sourcePath": "/Users/akinipek/CozyContract/CozyContractNFT/contracts/CozyHomeNFT.sol",
  "compiler": {
    "name": "solc",
    "version": "0.8.9+commit.e5eed63a.Emscripten.clang"
  },
  "schemaVersion": "3.4.3",
  "updatedAt": "2021-12-11T20:55:16.451Z",
  "networkType": "ethereum",
  "devdoc": {
    "kind": "dev",
    "methods": {
      "approve(address,uint256)": {
        "details": "See {IERC721-approve}."
      },
      "balanceOf(address)": {
        "details": "See {IERC721-balanceOf}."
      },
      "getApproved(uint256)": {
        "details": "See {IERC721-getApproved}."
      },
      "isApprovedForAll(address,address)": {
        "details": "See {IERC721-isApprovedForAll}."
      },
      "name()": {
        "details": "See {IERC721Metadata-name}."
      },
      "ownerOf(uint256)": {
        "details": "See {IERC721-ownerOf}."
      },
      "safeTransferFrom(address,address,uint256)": {
        "details": "See {IERC721-safeTransferFrom}."
      },
      "safeTransferFrom(address,address,uint256,bytes)": {
        "details": "See {IERC721-safeTransferFrom}."
      },
      "setApprovalForAll(address,bool)": {
        "details": "See {IERC721-setApprovalForAll}."
      },
      "supportsInterface(bytes4)": {
        "details": "See {IERC165-supportsInterface}."
      },
      "symbol()": {
        "details": "See {IERC721Metadata-symbol}."
      },
      "tokenURI(uint256)": {
        "details": "See {IERC721Metadata-tokenURI}."
      },
      "transferFrom(address,address,uint256)": {
        "details": "See {IERC721-transferFrom}."
      }
    },
    "version": 1
  },
  "userdoc": {
    "kind": "user",
    "methods": {},
    "version": 1
  }
}